{
	"samosa/project. sol": {
		"MilestoneEscrow": {
			"abi": [
				{
					"inputs": [
						{
							"internalType": "address payable",
							"name": "_student",
							"type": "address"
						},
						{
							"internalType": "uint256",
							"name": "_totalMilestones",
							"type": "uint256"
						}
					],
					"stateMutability": "nonpayable",
					"type": "constructor"
				},
				{
					"inputs": [],
					"name": "contractState",
					"outputs": [
						{
							"internalType": "enum MilestoneEscrow.State",
							"name": "",
							"type": "uint8"
						}
					],
					"stateMutability": "view",
					"type": "function"
				},
				{
					"inputs": [],
					"name": "currentMilestone",
					"outputs": [
						{
							"internalType": "uint256",
							"name": "",
							"type": "uint256"
						}
					],
					"stateMutability": "view",
					"type": "function"
				},
				{
					"inputs": [],
					"name": "deposit",
					"outputs": [],
					"stateMutability": "payable",
					"type": "function"
				},
				{
					"inputs": [],
					"name": "getBalance",
					"outputs": [
						{
							"internalType": "uint256",
							"name": "",
							"type": "uint256"
						}
					],
					"stateMutability": "view",
					"type": "function"
				},
				{
					"inputs": [],
					"name": "investor",
					"outputs": [
						{
							"internalType": "address",
							"name": "",
							"type": "address"
						}
					],
					"stateMutability": "view",
					"type": "function"
				},
				{
					"inputs": [
						{
							"internalType": "uint256",
							"name": "",
							"type": "uint256"
						}
					],
					"name": "milestoneAmounts",
					"outputs": [
						{
							"internalType": "uint256",
							"name": "",
							"type": "uint256"
						}
					],
					"stateMutability": "view",
					"type": "function"
				},
				{
					"inputs": [],
					"name": "refund",
					"outputs": [],
					"stateMutability": "nonpayable",
					"type": "function"
				},
				{
					"inputs": [],
					"name": "releaseFunds",
					"outputs": [],
					"stateMutability": "nonpayable",
					"type": "function"
				},
				{
					"inputs": [
						{
							"internalType": "uint256",
							"name": "milestoneId",
							"type": "uint256"
						},
						{
							"internalType": "uint256",
							"name": "amount",
							"type": "uint256"
						}
					],
					"name": "setMilestone",
					"outputs": [],
					"stateMutability": "nonpayable",
					"type": "function"
				},
				{
					"inputs": [],
					"name": "student",
					"outputs": [
						{
							"internalType": "address payable",
							"name": "",
							"type": "address"
						}
					],
					"stateMutability": "view",
					"type": "function"
				},
				{
					"inputs": [],
					"name": "totalDeposited",
					"outputs": [
						{
							"internalType": "uint256",
							"name": "",
							"type": "uint256"
						}
					],
					"stateMutability": "view",
					"type": "function"
				},
				{
					"inputs": [],
					"name": "totalMilestones",
					"outputs": [
						{
							"internalType": "uint256",
							"name": "",
							"type": "uint256"
						}
					],
					"stateMutability": "view",
					"type": "function"
				}
			],
			"devdoc": {
				"kind": "dev",
				"methods": {},
				"version": 1
			},
			"evm": {
				"assembly": "    /* \"samosa/project. sol\":60:2741  contract MilestoneEscrow {... */\n  mstore(0x40, 0x80)\n    /* \"samosa/project. sol\":494:743  constructor(address payable _student, uint _totalMilestones) {... */\n  callvalue\n  dup1\n  iszero\n  tag_1\n  jumpi\n  0x00\n  dup1\n  revert\ntag_1:\n  pop\n  mload(0x40)\n  sub(codesize, bytecodeSize)\n  dup1\n  bytecodeSize\n  dup4\n  codecopy\n  dup2\n  dup2\n  add\n  0x40\n  mstore\n  dup2\n  add\n  swap1\n  tag_2\n  swap2\n  swap1\n  tag_3\n  jump\t// in\ntag_2:\n    /* \"samosa/project. sol\":576:586  msg.sender */\n  caller\n    /* \"samosa/project. sol\":566:574  investor */\n  0x00\n  dup1\n    /* \"samosa/project. sol\":566:586  investor =msg.sender */\n  0x0100\n  exp\n  dup2\n  sload\n  dup2\n  0xffffffffffffffffffffffffffffffffffffffff\n  mul\n  not\n  and\n  swap1\n  dup4\n  0xffffffffffffffffffffffffffffffffffffffff\n  and\n  mul\n  or\n  swap1\n  sstore\n  pop\n    /* \"samosa/project. sol\":615:631  _totalMilestones */\n  dup1\n    /* \"samosa/project. sol\":597:612  totalMilestones */\n  0x02\n    /* \"samosa/project. sol\":597:631  totalMilestones = _totalMilestones */\n  dup2\n  swap1\n  sstore\n  pop\n    /* \"samosa/project. sol\":651:659  _student */\n  dup2\n    /* \"samosa/project. sol\":642:649  student */\n  0x01\n  0x00\n    /* \"samosa/project. sol\":642:659  student= _student */\n  0x0100\n  exp\n  dup2\n  sload\n  dup2\n  0xffffffffffffffffffffffffffffffffffffffff\n  mul\n  not\n  and\n  swap1\n  dup4\n  0xffffffffffffffffffffffffffffffffffffffff\n  and\n  mul\n  or\n  swap1\n  sstore\n  pop\n    /* \"samosa/project. sol\":687:688  0 */\n  0x00\n    /* \"samosa/project. sol\":670:686  currentMilestone */\n  0x03\n    /* \"samosa/project. sol\":670:688  currentMilestone=0 */\n  dup2\n  swap1\n  sstore\n  pop\n    /* \"samosa/project. sol\":715:735  State.AWAITING_FUNDS */\n  0x00\n    /* \"samosa/project. sol\":699:712  contractState */\n  0x06\n  0x00\n    /* \"samosa/project. sol\":699:735  contractState = State.AWAITING_FUNDS */\n  0x0100\n  exp\n  dup2\n  sload\n  dup2\n  0xff\n  mul\n  not\n  and\n  swap1\n  dup4\n  0x03\n  dup2\n  gt\n  iszero\n  tag_6\n  jumpi\n  tag_7\n  tag_8\n  jump\t// in\ntag_7:\ntag_6:\n  mul\n  or\n  swap1\n  sstore\n  pop\n    /* \"samosa/project. sol\":494:743  constructor(address payable _student, uint _totalMilestones) {... */\n  pop\n  pop\n    /* \"samosa/project. sol\":60:2741  contract MilestoneEscrow {... */\n  jump(tag_9)\n    /* \"#utility.yul\":88:205   */\ntag_11:\n    /* \"#utility.yul\":197:198   */\n  0x00\n    /* \"#utility.yul\":194:195   */\n  dup1\n    /* \"#utility.yul\":187:199   */\n  revert\n    /* \"#utility.yul\":334:460   */\ntag_13:\n    /* \"#utility.yul\":371:378   */\n  0x00\n    /* \"#utility.yul\":411:453   */\n  0xffffffffffffffffffffffffffffffffffffffff\n    /* \"#utility.yul\":404:409   */\n  dup3\n    /* \"#utility.yul\":400:454   */\n  and\n    /* \"#utility.yul\":389:454   */\n  swap1\n  pop\n    /* \"#utility.yul\":334:460   */\n  swap2\n  swap1\n  pop\n  jump\t// out\n    /* \"#utility.yul\":466:570   */\ntag_14:\n    /* \"#utility.yul\":511:518   */\n  0x00\n    /* \"#utility.yul\":540:564   */\n  tag_26\n    /* \"#utility.yul\":558:563   */\n  dup3\n    /* \"#utility.yul\":540:564   */\n  tag_13\n  jump\t// in\ntag_26:\n    /* \"#utility.yul\":529:564   */\n  swap1\n  pop\n    /* \"#utility.yul\":466:570   */\n  swap2\n  swap1\n  pop\n  jump\t// out\n    /* \"#utility.yul\":576:714   */\ntag_15:\n    /* \"#utility.yul\":657:689   */\n  tag_28\n    /* \"#utility.yul\":683:688   */\n  dup2\n    /* \"#utility.yul\":657:689   */\n  tag_14\n  jump\t// in\ntag_28:\n    /* \"#utility.yul\":650:655   */\n  dup2\n    /* \"#utility.yul\":647:690   */\n  eq\n    /* \"#utility.yul\":637:708   */\n  tag_29\n  jumpi\n    /* \"#utility.yul\":704:705   */\n  0x00\n    /* \"#utility.yul\":701:702   */\n  dup1\n    /* \"#utility.yul\":694:706   */\n  revert\n    /* \"#utility.yul\":637:708   */\ntag_29:\n    /* \"#utility.yul\":576:714   */\n  pop\n  jump\t// out\n    /* \"#utility.yul\":720:879   */\ntag_16:\n    /* \"#utility.yul\":785:790   */\n  0x00\n    /* \"#utility.yul\":816:822   */\n  dup2\n    /* \"#utility.yul\":810:823   */\n  mload\n    /* \"#utility.yul\":801:823   */\n  swap1\n  pop\n    /* \"#utility.yul\":832:873   */\n  tag_31\n    /* \"#utility.yul\":867:872   */\n  dup2\n    /* \"#utility.yul\":832:873   */\n  tag_15\n  jump\t// in\ntag_31:\n    /* \"#utility.yul\":720:879   */\n  swap3\n  swap2\n  pop\n  pop\n  jump\t// out\n    /* \"#utility.yul\":885:962   */\ntag_17:\n    /* \"#utility.yul\":922:929   */\n  0x00\n    /* \"#utility.yul\":951:956   */\n  dup2\n    /* \"#utility.yul\":940:956   */\n  swap1\n  pop\n    /* \"#utility.yul\":885:962   */\n  swap2\n  swap1\n  pop\n  jump\t// out\n    /* \"#utility.yul\":968:1090   */\ntag_18:\n    /* \"#utility.yul\":1041:1065   */\n  tag_34\n    /* \"#utility.yul\":1059:1064   */\n  dup2\n    /* \"#utility.yul\":1041:1065   */\n  tag_17\n  jump\t// in\ntag_34:\n    /* \"#utility.yul\":1034:1039   */\n  dup2\n    /* \"#utility.yul\":1031:1066   */\n  eq\n    /* \"#utility.yul\":1021:1084   */\n  tag_35\n  jumpi\n    /* \"#utility.yul\":1080:1081   */\n  0x00\n    /* \"#utility.yul\":1077:1078   */\n  dup1\n    /* \"#utility.yul\":1070:1082   */\n  revert\n    /* \"#utility.yul\":1021:1084   */\ntag_35:\n    /* \"#utility.yul\":968:1090   */\n  pop\n  jump\t// out\n    /* \"#utility.yul\":1096:1239   */\ntag_19:\n    /* \"#utility.yul\":1153:1158   */\n  0x00\n    /* \"#utility.yul\":1184:1190   */\n  dup2\n    /* \"#utility.yul\":1178:1191   */\n  mload\n    /* \"#utility.yul\":1169:1191   */\n  swap1\n  pop\n    /* \"#utility.yul\":1200:1233   */\n  tag_37\n    /* \"#utility.yul\":1227:1232   */\n  dup2\n    /* \"#utility.yul\":1200:1233   */\n  tag_18\n  jump\t// in\ntag_37:\n    /* \"#utility.yul\":1096:1239   */\n  swap3\n  swap2\n  pop\n  pop\n  jump\t// out\n    /* \"#utility.yul\":1245:1768   */\ntag_3:\n    /* \"#utility.yul\":1332:1338   */\n  0x00\n    /* \"#utility.yul\":1340:1346   */\n  dup1\n    /* \"#utility.yul\":1389:1391   */\n  0x40\n    /* \"#utility.yul\":1377:1386   */\n  dup4\n    /* \"#utility.yul\":1368:1375   */\n  dup6\n    /* \"#utility.yul\":1364:1387   */\n  sub\n    /* \"#utility.yul\":1360:1392   */\n  slt\n    /* \"#utility.yul\":1357:1476   */\n  iszero\n  tag_39\n  jumpi\n    /* \"#utility.yul\":1395:1474   */\n  tag_40\n  tag_11\n  jump\t// in\ntag_40:\n    /* \"#utility.yul\":1357:1476   */\ntag_39:\n    /* \"#utility.yul\":1515:1516   */\n  0x00\n    /* \"#utility.yul\":1540:1612   */\n  tag_41\n    /* \"#utility.yul\":1604:1611   */\n  dup6\n    /* \"#utility.yul\":1595:1601   */\n  dup3\n    /* \"#utility.yul\":1584:1593   */\n  dup7\n    /* \"#utility.yul\":1580:1602   */\n  add\n    /* \"#utility.yul\":1540:1612   */\n  tag_16\n  jump\t// in\ntag_41:\n    /* \"#utility.yul\":1530:1612   */\n  swap3\n  pop\n    /* \"#utility.yul\":1486:1622   */\n  pop\n    /* \"#utility.yul\":1661:1663   */\n  0x20\n    /* \"#utility.yul\":1687:1751   */\n  tag_42\n    /* \"#utility.yul\":1743:1750   */\n  dup6\n    /* \"#utility.yul\":1734:1740   */\n  dup3\n    /* \"#utility.yul\":1723:1732   */\n  dup7\n    /* \"#utility.yul\":1719:1741   */\n  add\n    /* \"#utility.yul\":1687:1751   */\n  tag_19\n  jump\t// in\ntag_42:\n    /* \"#utility.yul\":1677:1751   */\n  swap2\n  pop\n    /* \"#utility.yul\":1632:1761   */\n  pop\n    /* \"#utility.yul\":1245:1768   */\n  swap3\n  pop\n  swap3\n  swap1\n  pop\n  jump\t// out\n    /* \"#utility.yul\":1774:1954   */\ntag_8:\n    /* \"#utility.yul\":1822:1899   */\n  0x4e487b7100000000000000000000000000000000000000000000000000000000\n    /* \"#utility.yul\":1819:1820   */\n  0x00\n    /* \"#utility.yul\":1812:1900   */\n  mstore\n    /* \"#utility.yul\":1919:1923   */\n  0x21\n    /* \"#utility.yul\":1916:1917   */\n  0x04\n    /* \"#utility.yul\":1909:1924   */\n  mstore\n    /* \"#utility.yul\":1943:1947   */\n  0x24\n    /* \"#utility.yul\":1940:1941   */\n  0x00\n    /* \"#utility.yul\":1933:1948   */\n  revert\n    /* \"samosa/project. sol\":60:2741  contract MilestoneEscrow {... */\ntag_9:\n  dataSize(sub_0)\n  dup1\n  dataOffset(sub_0)\n  0x00\n  codecopy\n  0x00\n  return\nstop\n\nsub_0: assembly {\n        /* \"samosa/project. sol\":60:2741  contract MilestoneEscrow {... */\n      mstore(0x40, 0x80)\n      jumpi(tag_1, lt(calldatasize, 0x04))\n      shr(0xe0, calldataload(0x00))\n      dup1\n      0x69d89575\n      gt\n      tag_14\n      jumpi\n      dup1\n      0x69d89575\n      eq\n      tag_8\n      jumpi\n      dup1\n      0x85209ee0\n      eq\n      tag_9\n      jumpi\n      dup1\n      0xb0304813\n      eq\n      tag_10\n      jumpi\n      dup1\n      0xd0e30db0\n      eq\n      tag_11\n      jumpi\n      dup1\n      0xeeafe9da\n      eq\n      tag_12\n      jumpi\n      dup1\n      0xff50abdc\n      eq\n      tag_13\n      jumpi\n      jump(tag_1)\n    tag_14:\n      dup1\n      0x12065fe0\n      eq\n      tag_2\n      jumpi\n      dup1\n      0x1e0018d6\n      eq\n      tag_3\n      jumpi\n      dup1\n      0x39a4e2d2\n      eq\n      tag_4\n      jumpi\n      dup1\n      0x3ed0cd21\n      eq\n      tag_5\n      jumpi\n      dup1\n      0x590e1ae3\n      eq\n      tag_6\n      jumpi\n      dup1\n      0x699450e8\n      eq\n      tag_7\n      jumpi\n    tag_1:\n      0x00\n      dup1\n      revert\n        /* \"samosa/project. sol\":2641:2738  function getBalance() external view returns(uint) {... */\n    tag_2:\n      callvalue\n      dup1\n      iszero\n      tag_15\n      jumpi\n      0x00\n      dup1\n      revert\n    tag_15:\n      pop\n      tag_16\n      tag_17\n      jump\t// in\n    tag_16:\n      mload(0x40)\n      tag_18\n      swap2\n      swap1\n      tag_19\n      jump\t// in\n    tag_18:\n      mload(0x40)\n      dup1\n      swap2\n      sub\n      swap1\n      return\n        /* \"samosa/project. sol\":92:115  address public investor */\n    tag_3:\n      callvalue\n      dup1\n      iszero\n      tag_20\n      jumpi\n      0x00\n      dup1\n      revert\n    tag_20:\n      pop\n      tag_21\n      tag_22\n      jump\t// in\n    tag_21:\n      mload(0x40)\n      tag_23\n      swap2\n      swap1\n      tag_24\n      jump\t// in\n    tag_23:\n      mload(0x40)\n      dup1\n      swap2\n      sub\n      swap1\n      return\n        /* \"samosa/project. sol\":213:240  uint public totalMilestones */\n    tag_4:\n      callvalue\n      dup1\n      iszero\n      tag_25\n      jumpi\n      0x00\n      dup1\n      revert\n    tag_25:\n      pop\n      tag_26\n      tag_27\n      jump\t// in\n    tag_26:\n      mload(0x40)\n      tag_28\n      swap2\n      swap1\n      tag_19\n      jump\t// in\n    tag_28:\n      mload(0x40)\n      dup1\n      swap2\n      sub\n      swap1\n      return\n        /* \"samosa/project. sol\":1205:1539  function setMilestone(uint milestoneId, uint amount) external {... */\n    tag_5:\n      callvalue\n      dup1\n      iszero\n      tag_29\n      jumpi\n      0x00\n      dup1\n      revert\n    tag_29:\n      pop\n      tag_30\n      0x04\n      dup1\n      calldatasize\n      sub\n      dup2\n      add\n      swap1\n      tag_31\n      swap2\n      swap1\n      tag_32\n      jump\t// in\n    tag_31:\n      tag_33\n      jump\t// in\n    tag_30:\n      stop\n        /* \"samosa/project. sol\":2286:2594  function refund() external {... */\n    tag_6:\n      callvalue\n      dup1\n      iszero\n      tag_34\n      jumpi\n      0x00\n      dup1\n      revert\n    tag_34:\n      pop\n      tag_35\n      tag_36\n      jump\t// in\n    tag_35:\n      stop\n        /* \"samosa/project. sol\":146:176  address payable public student */\n    tag_7:\n      callvalue\n      dup1\n      iszero\n      tag_37\n      jumpi\n      0x00\n      dup1\n      revert\n    tag_37:\n      pop\n      tag_38\n      tag_39\n      jump\t// in\n    tag_38:\n      mload(0x40)\n      tag_40\n      swap2\n      swap1\n      tag_41\n      jump\t// in\n    tag_40:\n      mload(0x40)\n      dup1\n      swap2\n      sub\n      swap1\n      return\n        /* \"samosa/project. sol\":1601:2213  function releaseFunds() external {... */\n    tag_8:\n      callvalue\n      dup1\n      iszero\n      tag_42\n      jumpi\n      0x00\n      dup1\n      revert\n    tag_42:\n      pop\n      tag_43\n      tag_44\n      jump\t// in\n    tag_43:\n      stop\n        /* \"samosa/project. sol\":459:485  State public contractState */\n    tag_9:\n      callvalue\n      dup1\n      iszero\n      tag_45\n      jumpi\n      0x00\n      dup1\n      revert\n    tag_45:\n      pop\n      tag_46\n      tag_47\n      jump\t// in\n    tag_46:\n      mload(0x40)\n      tag_48\n      swap2\n      swap1\n      tag_49\n      jump\t// in\n    tag_48:\n      mload(0x40)\n      dup1\n      swap2\n      sub\n      swap1\n      return\n        /* \"samosa/project. sol\":247:275  uint public currentMilestone */\n    tag_10:\n      callvalue\n      dup1\n      iszero\n      tag_50\n      jumpi\n      0x00\n      dup1\n      revert\n    tag_50:\n      pop\n      tag_51\n      tag_52\n      jump\t// in\n    tag_51:\n      mload(0x40)\n      tag_53\n      swap2\n      swap1\n      tag_19\n      jump\t// in\n    tag_53:\n      mload(0x40)\n      dup1\n      swap2\n      sub\n      swap1\n      return\n        /* \"samosa/project. sol\":807:1130  function deposit() external payable {... */\n    tag_11:\n      tag_54\n      tag_55\n      jump\t// in\n    tag_54:\n      stop\n        /* \"samosa/project. sol\":284:329  mapping(uint => uint) public milestoneAmounts */\n    tag_12:\n      callvalue\n      dup1\n      iszero\n      tag_56\n      jumpi\n      0x00\n      dup1\n      revert\n    tag_56:\n      pop\n      tag_57\n      0x04\n      dup1\n      calldatasize\n      sub\n      dup2\n      add\n      swap1\n      tag_58\n      swap2\n      swap1\n      tag_59\n      jump\t// in\n    tag_58:\n      tag_60\n      jump\t// in\n    tag_57:\n      mload(0x40)\n      tag_61\n      swap2\n      swap1\n      tag_19\n      jump\t// in\n    tag_61:\n      mload(0x40)\n      dup1\n      swap2\n      sub\n      swap1\n      return\n        /* \"samosa/project. sol\":360:386  uint public totalDeposited */\n    tag_13:\n      callvalue\n      dup1\n      iszero\n      tag_62\n      jumpi\n      0x00\n      dup1\n      revert\n    tag_62:\n      pop\n      tag_63\n      tag_64\n      jump\t// in\n    tag_63:\n      mload(0x40)\n      tag_65\n      swap2\n      swap1\n      tag_19\n      jump\t// in\n    tag_65:\n      mload(0x40)\n      dup1\n      swap2\n      sub\n      swap1\n      return\n        /* \"samosa/project. sol\":2641:2738  function getBalance() external view returns(uint) {... */\n    tag_17:\n        /* \"samosa/project. sol\":2685:2689  uint */\n      0x00\n        /* \"samosa/project. sol\":2709:2730  address(this).balance */\n      selfbalance\n        /* \"samosa/project. sol\":2702:2730  return address(this).balance */\n      swap1\n      pop\n        /* \"samosa/project. sol\":2641:2738  function getBalance() external view returns(uint) {... */\n      swap1\n      jump\t// out\n        /* \"samosa/project. sol\":92:115  address public investor */\n    tag_22:\n      0x00\n      dup1\n      sload\n      swap1\n      0x0100\n      exp\n      swap1\n      div\n      0xffffffffffffffffffffffffffffffffffffffff\n      and\n      dup2\n      jump\t// out\n        /* \"samosa/project. sol\":213:240  uint public totalMilestones */\n    tag_27:\n      sload(0x02)\n      dup2\n      jump\t// out\n        /* \"samosa/project. sol\":1205:1539  function setMilestone(uint milestoneId, uint amount) external {... */\n    tag_33:\n        /* \"samosa/project. sol\":1300:1308  investor */\n      0x00\n      dup1\n      sload\n      swap1\n      0x0100\n      exp\n      swap1\n      div\n      0xffffffffffffffffffffffffffffffffffffffff\n      and\n        /* \"samosa/project. sol\":1286:1308  msg.sender == investor */\n      0xffffffffffffffffffffffffffffffffffffffff\n      and\n        /* \"samosa/project. sol\":1286:1296  msg.sender */\n      caller\n        /* \"samosa/project. sol\":1286:1308  msg.sender == investor */\n      0xffffffffffffffffffffffffffffffffffffffff\n      and\n      eq\n        /* \"samosa/project. sol\":1278:1345  require(msg.sender == investor, \"Only investor can set milestones\") */\n      tag_68\n      jumpi\n      mload(0x40)\n      0x08c379a000000000000000000000000000000000000000000000000000000000\n      dup2\n      mstore\n      0x04\n      add\n      tag_69\n      swap1\n      tag_70\n      jump\t// in\n    tag_69:\n      mload(0x40)\n      dup1\n      swap2\n      sub\n      swap1\n      revert\n    tag_68:\n        /* \"samosa/project. sol\":1381:1393  State.FUNDED */\n      0x01\n        /* \"samosa/project. sol\":1364:1393  contractState == State.FUNDED */\n      0x03\n      dup2\n      gt\n      iszero\n      tag_71\n      jumpi\n      tag_72\n      tag_73\n      jump\t// in\n    tag_72:\n    tag_71:\n        /* \"samosa/project. sol\":1364:1377  contractState */\n      0x06\n      0x00\n      swap1\n      sload\n      swap1\n      0x0100\n      exp\n      swap1\n      div\n      0xff\n      and\n        /* \"samosa/project. sol\":1364:1393  contractState == State.FUNDED */\n      0x03\n      dup2\n      gt\n      iszero\n      tag_74\n      jumpi\n      tag_75\n      tag_73\n      jump\t// in\n    tag_75:\n    tag_74:\n      eq\n        /* \"samosa/project. sol\":1356:1412  require(contractState == State.FUNDED, \"Not funded yet\") */\n      tag_76\n      jumpi\n      mload(0x40)\n      0x08c379a000000000000000000000000000000000000000000000000000000000\n      dup2\n      mstore\n      0x04\n      add\n      tag_77\n      swap1\n      tag_78\n      jump\t// in\n    tag_77:\n      mload(0x40)\n      dup1\n      swap2\n      sub\n      swap1\n      revert\n    tag_76:\n        /* \"samosa/project. sol\":1445:1460  totalMilestones */\n      sload(0x02)\n        /* \"samosa/project. sol\":1431:1442  milestoneId */\n      dup3\n        /* \"samosa/project. sol\":1431:1460  milestoneId < totalMilestones */\n      lt\n        /* \"samosa/project. sol\":1423:1482  require(milestoneId < totalMilestones, \"Invalid milestone\") */\n      tag_79\n      jumpi\n      mload(0x40)\n      0x08c379a000000000000000000000000000000000000000000000000000000000\n      dup2\n      mstore\n      0x04\n      add\n      tag_80\n      swap1\n      tag_81\n      jump\t// in\n    tag_80:\n      mload(0x40)\n      dup1\n      swap2\n      sub\n      swap1\n      revert\n    tag_79:\n        /* \"samosa/project. sol\":1525:1531  amount */\n      dup1\n        /* \"samosa/project. sol\":1493:1509  milestoneAmounts */\n      0x04\n        /* \"samosa/project. sol\":1493:1522  milestoneAmounts[milestoneId] */\n      0x00\n        /* \"samosa/project. sol\":1510:1521  milestoneId */\n      dup5\n        /* \"samosa/project. sol\":1493:1522  milestoneAmounts[milestoneId] */\n      dup2\n      mstore\n      0x20\n      add\n      swap1\n      dup2\n      mstore\n      0x20\n      add\n      0x00\n      keccak256\n        /* \"samosa/project. sol\":1493:1531  milestoneAmounts[milestoneId] = amount */\n      dup2\n      swap1\n      sstore\n      pop\n        /* \"samosa/project. sol\":1205:1539  function setMilestone(uint milestoneId, uint amount) external {... */\n      pop\n      pop\n      jump\t// out\n        /* \"samosa/project. sol\":2286:2594  function refund() external {... */\n    tag_36:\n        /* \"samosa/project. sol\":2346:2354  investor */\n      0x00\n      dup1\n      sload\n      swap1\n      0x0100\n      exp\n      swap1\n      div\n      0xffffffffffffffffffffffffffffffffffffffff\n      and\n        /* \"samosa/project. sol\":2332:2354  msg.sender == investor */\n      0xffffffffffffffffffffffffffffffffffffffff\n      and\n        /* \"samosa/project. sol\":2332:2342  msg.sender */\n      caller\n        /* \"samosa/project. sol\":2332:2354  msg.sender == investor */\n      0xffffffffffffffffffffffffffffffffffffffff\n      and\n      eq\n        /* \"samosa/project. sol\":2324:2383  require(msg.sender == investor, \"Only investor can refund\") */\n      tag_83\n      jumpi\n      mload(0x40)\n      0x08c379a000000000000000000000000000000000000000000000000000000000\n      dup2\n      mstore\n      0x04\n      add\n      tag_84\n      swap1\n      tag_85\n      jump\t// in\n    tag_84:\n      mload(0x40)\n      dup1\n      swap2\n      sub\n      swap1\n      revert\n    tag_83:\n        /* \"samosa/project. sol\":2419:2431  State.FUNDED */\n      0x01\n        /* \"samosa/project. sol\":2402:2431  contractState == State.FUNDED */\n      0x03\n      dup2\n      gt\n      iszero\n      tag_86\n      jumpi\n      tag_87\n      tag_73\n      jump\t// in\n    tag_87:\n    tag_86:\n        /* \"samosa/project. sol\":2402:2415  contractState */\n      0x06\n      0x00\n      swap1\n      sload\n      swap1\n      0x0100\n      exp\n      swap1\n      div\n      0xff\n      and\n        /* \"samosa/project. sol\":2402:2431  contractState == State.FUNDED */\n      0x03\n      dup2\n      gt\n      iszero\n      tag_88\n      jumpi\n      tag_89\n      tag_73\n      jump\t// in\n    tag_89:\n    tag_88:\n      eq\n        /* \"samosa/project. sol\":2394:2446  require(contractState == State.FUNDED, \"Not funded\") */\n      tag_90\n      jumpi\n      mload(0x40)\n      0x08c379a000000000000000000000000000000000000000000000000000000000\n      dup2\n      mstore\n      0x04\n      add\n      tag_91\n      swap1\n      tag_92\n      jump\t// in\n    tag_91:\n      mload(0x40)\n      dup1\n      swap2\n      sub\n      swap1\n      revert\n    tag_90:\n        /* \"samosa/project. sol\":2459:2473  uint remaining */\n      0x00\n        /* \"samosa/project. sol\":2476:2497  address(this).balance */\n      selfbalance\n        /* \"samosa/project. sol\":2459:2497  uint remaining = address(this).balance */\n      swap1\n      pop\n        /* \"samosa/project. sol\":2516:2524  investor */\n      0x00\n      dup1\n      sload\n      swap1\n      0x0100\n      exp\n      swap1\n      div\n      0xffffffffffffffffffffffffffffffffffffffff\n      and\n        /* \"samosa/project. sol\":2508:2534  payable(investor).transfer */\n      0xffffffffffffffffffffffffffffffffffffffff\n      and\n        /* \"samosa/project. sol\":2508:2545  payable(investor).transfer(remaining) */\n      0x08fc\n        /* \"samosa/project. sol\":2535:2544  remaining */\n      dup3\n        /* \"samosa/project. sol\":2508:2545  payable(investor).transfer(remaining) */\n      swap1\n      dup2\n      iszero\n      mul\n      swap1\n      mload(0x40)\n      0x00\n      mload(0x40)\n      dup1\n      dup4\n      sub\n      dup2\n      dup6\n      dup9\n      dup9\n      call\n      swap4\n      pop\n      pop\n      pop\n      pop\n      iszero\n      dup1\n      iszero\n      tag_94\n      jumpi\n      returndatasize\n      0x00\n      dup1\n      returndatacopy\n      revert(0x00, returndatasize)\n    tag_94:\n      pop\n        /* \"samosa/project. sol\":2572:2586  State.REFUNDED */\n      0x03\n        /* \"samosa/project. sol\":2556:2569  contractState */\n      0x06\n      0x00\n        /* \"samosa/project. sol\":2556:2586  contractState = State.REFUNDED */\n      0x0100\n      exp\n      dup2\n      sload\n      dup2\n      0xff\n      mul\n      not\n      and\n      swap1\n      dup4\n      0x03\n      dup2\n      gt\n      iszero\n      tag_95\n      jumpi\n      tag_96\n      tag_73\n      jump\t// in\n    tag_96:\n    tag_95:\n      mul\n      or\n      swap1\n      sstore\n      pop\n        /* \"samosa/project. sol\":2313:2594  {... */\n      pop\n        /* \"samosa/project. sol\":2286:2594  function refund() external {... */\n      jump\t// out\n        /* \"samosa/project. sol\":146:176  address payable public student */\n    tag_39:\n      0x01\n      0x00\n      swap1\n      sload\n      swap1\n      0x0100\n      exp\n      swap1\n      div\n      0xffffffffffffffffffffffffffffffffffffffff\n      and\n      dup2\n      jump\t// out\n        /* \"samosa/project. sol\":1601:2213  function releaseFunds() external {... */\n    tag_44:\n        /* \"samosa/project. sol\":1667:1675  investor */\n      0x00\n      dup1\n      sload\n      swap1\n      0x0100\n      exp\n      swap1\n      div\n      0xffffffffffffffffffffffffffffffffffffffff\n      and\n        /* \"samosa/project. sol\":1653:1675  msg.sender == investor */\n      0xffffffffffffffffffffffffffffffffffffffff\n      and\n        /* \"samosa/project. sol\":1653:1663  msg.sender */\n      caller\n        /* \"samosa/project. sol\":1653:1675  msg.sender == investor */\n      0xffffffffffffffffffffffffffffffffffffffff\n      and\n      eq\n        /* \"samosa/project. sol\":1645:1705  require(msg.sender == investor, \"Only investor can release\") */\n      tag_98\n      jumpi\n      mload(0x40)\n      0x08c379a000000000000000000000000000000000000000000000000000000000\n      dup2\n      mstore\n      0x04\n      add\n      tag_99\n      swap1\n      tag_100\n      jump\t// in\n    tag_99:\n      mload(0x40)\n      dup1\n      swap2\n      sub\n      swap1\n      revert\n    tag_98:\n        /* \"samosa/project. sol\":1741:1753  State.FUNDED */\n      0x01\n        /* \"samosa/project. sol\":1724:1753  contractState == State.FUNDED */\n      0x03\n      dup2\n      gt\n      iszero\n      tag_101\n      jumpi\n      tag_102\n      tag_73\n      jump\t// in\n    tag_102:\n    tag_101:\n        /* \"samosa/project. sol\":1724:1737  contractState */\n      0x06\n      0x00\n      swap1\n      sload\n      swap1\n      0x0100\n      exp\n      swap1\n      div\n      0xff\n      and\n        /* \"samosa/project. sol\":1724:1753  contractState == State.FUNDED */\n      0x03\n      dup2\n      gt\n      iszero\n      tag_103\n      jumpi\n      tag_104\n      tag_73\n      jump\t// in\n    tag_104:\n    tag_103:\n      eq\n        /* \"samosa/project. sol\":1716:1768  require(contractState == State.FUNDED, \"Not funded\") */\n      tag_105\n      jumpi\n      mload(0x40)\n      0x08c379a000000000000000000000000000000000000000000000000000000000\n      dup2\n      mstore\n      0x04\n      add\n      tag_106\n      swap1\n      tag_92\n      jump\t// in\n    tag_106:\n      mload(0x40)\n      dup1\n      swap2\n      sub\n      swap1\n      revert\n    tag_105:\n        /* \"samosa/project. sol\":1806:1821  totalMilestones */\n      sload(0x02)\n        /* \"samosa/project. sol\":1787:1803  currentMilestone */\n      sload(0x03)\n        /* \"samosa/project. sol\":1787:1821  currentMilestone < totalMilestones */\n      lt\n        /* \"samosa/project. sol\":1779:1845  require(currentMilestone < totalMilestones, \"All milestones done\") */\n      tag_107\n      jumpi\n      mload(0x40)\n      0x08c379a000000000000000000000000000000000000000000000000000000000\n      dup2\n      mstore\n      0x04\n      add\n      tag_108\n      swap1\n      tag_109\n      jump\t// in\n    tag_108:\n      mload(0x40)\n      dup1\n      swap2\n      sub\n      swap1\n      revert\n    tag_107:\n        /* \"samosa/project. sol\":1858:1869  uint amount */\n      0x00\n        /* \"samosa/project. sol\":1872:1888  milestoneAmounts */\n      0x04\n        /* \"samosa/project. sol\":1872:1906  milestoneAmounts[currentMilestone] */\n      0x00\n        /* \"samosa/project. sol\":1889:1905  currentMilestone */\n      sload(0x03)\n        /* \"samosa/project. sol\":1872:1906  milestoneAmounts[currentMilestone] */\n      dup2\n      mstore\n      0x20\n      add\n      swap1\n      dup2\n      mstore\n      0x20\n      add\n      0x00\n      keccak256\n      sload\n        /* \"samosa/project. sol\":1858:1906  uint amount = milestoneAmounts[currentMilestone] */\n      swap1\n      pop\n        /* \"samosa/project. sol\":1934:1935  0 */\n      0x00\n        /* \"samosa/project. sol\":1925:1931  amount */\n      dup2\n        /* \"samosa/project. sol\":1925:1935  amount > 0 */\n      gt\n        /* \"samosa/project. sol\":1917:1964  require(amount > 0, \"Milestone amount not set\") */\n      tag_110\n      jumpi\n      mload(0x40)\n      0x08c379a000000000000000000000000000000000000000000000000000000000\n      dup2\n      mstore\n      0x04\n      add\n      tag_111\n      swap1\n      tag_112\n      jump\t// in\n    tag_111:\n      mload(0x40)\n      dup1\n      swap2\n      sub\n      swap1\n      revert\n    tag_110:\n        /* \"samosa/project. sol\":1977:1984  student */\n      0x01\n      0x00\n      swap1\n      sload\n      swap1\n      0x0100\n      exp\n      swap1\n      div\n      0xffffffffffffffffffffffffffffffffffffffff\n      and\n        /* \"samosa/project. sol\":1977:1993  student.transfer */\n      0xffffffffffffffffffffffffffffffffffffffff\n      and\n        /* \"samosa/project. sol\":1977:2001  student.transfer(amount) */\n      0x08fc\n        /* \"samosa/project. sol\":1994:2000  amount */\n      dup3\n        /* \"samosa/project. sol\":1977:2001  student.transfer(amount) */\n      swap1\n      dup2\n      iszero\n      mul\n      swap1\n      mload(0x40)\n      0x00\n      mload(0x40)\n      dup1\n      dup4\n      sub\n      dup2\n      dup6\n      dup9\n      dup9\n      call\n      swap4\n      pop\n      pop\n      pop\n      pop\n      iszero\n      dup1\n      iszero\n      tag_114\n      jumpi\n      returndatasize\n      0x00\n      dup1\n      returndatacopy\n      revert(0x00, returndatasize)\n    tag_114:\n      pop\n        /* \"samosa/project. sol\":2012:2028  currentMilestone */\n      0x03\n      0x00\n        /* \"samosa/project. sol\":2012:2030  currentMilestone++ */\n      dup2\n      sload\n      dup1\n      swap3\n      swap2\n      swap1\n      tag_115\n      swap1\n      tag_116\n      jump\t// in\n    tag_115:\n      swap2\n      swap1\n      pop\n      sstore\n      pop\n        /* \"samosa/project. sol\":2131:2146  totalMilestones */\n      sload(0x02)\n        /* \"samosa/project. sol\":2111:2127  currentMilestone */\n      sload(0x03)\n        /* \"samosa/project. sol\":2111:2146  currentMilestone == totalMilestones */\n      sub\n        /* \"samosa/project. sol\":2107:2206  if (currentMilestone == totalMilestones) {... */\n      tag_117\n      jumpi\n        /* \"samosa/project. sol\":2179:2194  State.COMPLETED */\n      0x02\n        /* \"samosa/project. sol\":2163:2176  contractState */\n      0x06\n      0x00\n        /* \"samosa/project. sol\":2163:2194  contractState = State.COMPLETED */\n      0x0100\n      exp\n      dup2\n      sload\n      dup2\n      0xff\n      mul\n      not\n      and\n      swap1\n      dup4\n      0x03\n      dup2\n      gt\n      iszero\n      tag_118\n      jumpi\n      tag_119\n      tag_73\n      jump\t// in\n    tag_119:\n    tag_118:\n      mul\n      or\n      swap1\n      sstore\n      pop\n        /* \"samosa/project. sol\":2107:2206  if (currentMilestone == totalMilestones) {... */\n    tag_117:\n        /* \"samosa/project. sol\":1634:2213  {... */\n      pop\n        /* \"samosa/project. sol\":1601:2213  function releaseFunds() external {... */\n      jump\t// out\n        /* \"samosa/project. sol\":459:485  State public contractState */\n    tag_47:\n      0x06\n      0x00\n      swap1\n      sload\n      swap1\n      0x0100\n      exp\n      swap1\n      div\n      0xff\n      and\n      dup2\n      jump\t// out\n        /* \"samosa/project. sol\":247:275  uint public currentMilestone */\n    tag_52:\n      sload(0x03)\n      dup2\n      jump\t// out\n        /* \"samosa/project. sol\":807:1130  function deposit() external payable {... */\n    tag_55:\n        /* \"samosa/project. sol\":876:884  investor */\n      0x00\n      dup1\n      sload\n      swap1\n      0x0100\n      exp\n      swap1\n      div\n      0xffffffffffffffffffffffffffffffffffffffff\n      and\n        /* \"samosa/project. sol\":862:884  msg.sender == investor */\n      0xffffffffffffffffffffffffffffffffffffffff\n      and\n        /* \"samosa/project. sol\":862:872  msg.sender */\n      caller\n        /* \"samosa/project. sol\":862:884  msg.sender == investor */\n      0xffffffffffffffffffffffffffffffffffffffff\n      and\n      eq\n        /* \"samosa/project. sol\":854:914  require(msg.sender == investor, \"Only investor can deposit\") */\n      tag_121\n      jumpi\n      mload(0x40)\n      0x08c379a000000000000000000000000000000000000000000000000000000000\n      dup2\n      mstore\n      0x04\n      add\n      tag_122\n      swap1\n      tag_123\n      jump\t// in\n    tag_122:\n      mload(0x40)\n      dup1\n      swap2\n      sub\n      swap1\n      revert\n    tag_121:\n        /* \"samosa/project. sol\":950:970  State.AWAITING_FUNDS */\n      0x00\n        /* \"samosa/project. sol\":933:970  contractState == State.AWAITING_FUNDS */\n      0x03\n      dup2\n      gt\n      iszero\n      tag_124\n      jumpi\n      tag_125\n      tag_73\n      jump\t// in\n    tag_125:\n    tag_124:\n        /* \"samosa/project. sol\":933:946  contractState */\n      0x06\n      0x00\n      swap1\n      sload\n      swap1\n      0x0100\n      exp\n      swap1\n      div\n      0xff\n      and\n        /* \"samosa/project. sol\":933:970  contractState == State.AWAITING_FUNDS */\n      0x03\n      dup2\n      gt\n      iszero\n      tag_126\n      jumpi\n      tag_127\n      tag_73\n      jump\t// in\n    tag_127:\n    tag_126:\n      eq\n        /* \"samosa/project. sol\":925:989  require(contractState == State.AWAITING_FUNDS, \"Already funded\") */\n      tag_128\n      jumpi\n      mload(0x40)\n      0x08c379a000000000000000000000000000000000000000000000000000000000\n      dup2\n      mstore\n      0x04\n      add\n      tag_129\n      swap1\n      tag_130\n      jump\t// in\n    tag_129:\n      mload(0x40)\n      dup1\n      swap2\n      sub\n      swap1\n      revert\n    tag_128:\n        /* \"samosa/project. sol\":1020:1021  0 */\n      0x00\n        /* \"samosa/project. sol\":1008:1017  msg.value */\n      callvalue\n        /* \"samosa/project. sol\":1008:1021  msg.value > 0 */\n      gt\n        /* \"samosa/project. sol\":1000:1044  require(msg.value > 0, \"Must send some ETH\") */\n      tag_131\n      jumpi\n      mload(0x40)\n      0x08c379a000000000000000000000000000000000000000000000000000000000\n      dup2\n      mstore\n      0x04\n      add\n      tag_132\n      swap1\n      tag_133\n      jump\t// in\n    tag_132:\n      mload(0x40)\n      dup1\n      swap2\n      sub\n      swap1\n      revert\n    tag_131:\n        /* \"samosa/project. sol\":1074:1083  msg.value */\n      callvalue\n        /* \"samosa/project. sol\":1057:1071  totalDeposited */\n      0x05\n        /* \"samosa/project. sol\":1057:1083  totalDeposited = msg.value */\n      dup2\n      swap1\n      sstore\n      pop\n        /* \"samosa/project. sol\":1110:1122  State.FUNDED */\n      0x01\n        /* \"samosa/project. sol\":1094:1107  contractState */\n      0x06\n      0x00\n        /* \"samosa/project. sol\":1094:1122  contractState = State.FUNDED */\n      0x0100\n      exp\n      dup2\n      sload\n      dup2\n      0xff\n      mul\n      not\n      and\n      swap1\n      dup4\n      0x03\n      dup2\n      gt\n      iszero\n      tag_134\n      jumpi\n      tag_135\n      tag_73\n      jump\t// in\n    tag_135:\n    tag_134:\n      mul\n      or\n      swap1\n      sstore\n      pop\n        /* \"samosa/project. sol\":807:1130  function deposit() external payable {... */\n      jump\t// out\n        /* \"samosa/project. sol\":284:329  mapping(uint => uint) public milestoneAmounts */\n    tag_60:\n      mstore(0x20, 0x04)\n      dup1\n      0x00\n      mstore\n      keccak256(0x00, 0x40)\n      0x00\n      swap2\n      pop\n      swap1\n      pop\n      sload\n      dup2\n      jump\t// out\n        /* \"samosa/project. sol\":360:386  uint public totalDeposited */\n    tag_64:\n      sload(0x05)\n      dup2\n      jump\t// out\n        /* \"#utility.yul\":7:84   */\n    tag_136:\n        /* \"#utility.yul\":44:51   */\n      0x00\n        /* \"#utility.yul\":73:78   */\n      dup2\n        /* \"#utility.yul\":62:78   */\n      swap1\n      pop\n        /* \"#utility.yul\":7:84   */\n      swap2\n      swap1\n      pop\n      jump\t// out\n        /* \"#utility.yul\":90:208   */\n    tag_137:\n        /* \"#utility.yul\":177:201   */\n      tag_179\n        /* \"#utility.yul\":195:200   */\n      dup2\n        /* \"#utility.yul\":177:201   */\n      tag_136\n      jump\t// in\n    tag_179:\n        /* \"#utility.yul\":172:175   */\n      dup3\n        /* \"#utility.yul\":165:202   */\n      mstore\n        /* \"#utility.yul\":90:208   */\n      pop\n      pop\n      jump\t// out\n        /* \"#utility.yul\":214:436   */\n    tag_19:\n        /* \"#utility.yul\":307:311   */\n      0x00\n        /* \"#utility.yul\":345:347   */\n      0x20\n        /* \"#utility.yul\":334:343   */\n      dup3\n        /* \"#utility.yul\":330:348   */\n      add\n        /* \"#utility.yul\":322:348   */\n      swap1\n      pop\n        /* \"#utility.yul\":358:429   */\n      tag_181\n        /* \"#utility.yul\":426:427   */\n      0x00\n        /* \"#utility.yul\":415:424   */\n      dup4\n        /* \"#utility.yul\":411:428   */\n      add\n        /* \"#utility.yul\":402:408   */\n      dup5\n        /* \"#utility.yul\":358:429   */\n      tag_137\n      jump\t// in\n    tag_181:\n        /* \"#utility.yul\":214:436   */\n      swap3\n      swap2\n      pop\n      pop\n      jump\t// out\n        /* \"#utility.yul\":442:568   */\n    tag_138:\n        /* \"#utility.yul\":479:486   */\n      0x00\n        /* \"#utility.yul\":519:561   */\n      0xffffffffffffffffffffffffffffffffffffffff\n        /* \"#utility.yul\":512:517   */\n      dup3\n        /* \"#utility.yul\":508:562   */\n      and\n        /* \"#utility.yul\":497:562   */\n      swap1\n      pop\n        /* \"#utility.yul\":442:568   */\n      swap2\n      swap1\n      pop\n      jump\t// out\n        /* \"#utility.yul\":574:670   */\n    tag_139:\n        /* \"#utility.yul\":611:618   */\n      0x00\n        /* \"#utility.yul\":640:664   */\n      tag_184\n        /* \"#utility.yul\":658:663   */\n      dup3\n        /* \"#utility.yul\":640:664   */\n      tag_138\n      jump\t// in\n    tag_184:\n        /* \"#utility.yul\":629:664   */\n      swap1\n      pop\n        /* \"#utility.yul\":574:670   */\n      swap2\n      swap1\n      pop\n      jump\t// out\n        /* \"#utility.yul\":676:794   */\n    tag_140:\n        /* \"#utility.yul\":763:787   */\n      tag_186\n        /* \"#utility.yul\":781:786   */\n      dup2\n        /* \"#utility.yul\":763:787   */\n      tag_139\n      jump\t// in\n    tag_186:\n        /* \"#utility.yul\":758:761   */\n      dup3\n        /* \"#utility.yul\":751:788   */\n      mstore\n        /* \"#utility.yul\":676:794   */\n      pop\n      pop\n      jump\t// out\n        /* \"#utility.yul\":800:1022   */\n    tag_24:\n        /* \"#utility.yul\":893:897   */\n      0x00\n        /* \"#utility.yul\":931:933   */\n      0x20\n        /* \"#utility.yul\":920:929   */\n      dup3\n        /* \"#utility.yul\":916:934   */\n      add\n        /* \"#utility.yul\":908:934   */\n      swap1\n      pop\n        /* \"#utility.yul\":944:1015   */\n      tag_188\n        /* \"#utility.yul\":1012:1013   */\n      0x00\n        /* \"#utility.yul\":1001:1010   */\n      dup4\n        /* \"#utility.yul\":997:1014   */\n      add\n        /* \"#utility.yul\":988:994   */\n      dup5\n        /* \"#utility.yul\":944:1015   */\n      tag_140\n      jump\t// in\n    tag_188:\n        /* \"#utility.yul\":800:1022   */\n      swap3\n      swap2\n      pop\n      pop\n      jump\t// out\n        /* \"#utility.yul\":1109:1226   */\n    tag_142:\n        /* \"#utility.yul\":1218:1219   */\n      0x00\n        /* \"#utility.yul\":1215:1216   */\n      dup1\n        /* \"#utility.yul\":1208:1220   */\n      revert\n        /* \"#utility.yul\":1355:1477   */\n    tag_144:\n        /* \"#utility.yul\":1428:1452   */\n      tag_193\n        /* \"#utility.yul\":1446:1451   */\n      dup2\n        /* \"#utility.yul\":1428:1452   */\n      tag_136\n      jump\t// in\n    tag_193:\n        /* \"#utility.yul\":1421:1426   */\n      dup2\n        /* \"#utility.yul\":1418:1453   */\n      eq\n        /* \"#utility.yul\":1408:1471   */\n      tag_194\n      jumpi\n        /* \"#utility.yul\":1467:1468   */\n      0x00\n        /* \"#utility.yul\":1464:1465   */\n      dup1\n        /* \"#utility.yul\":1457:1469   */\n      revert\n        /* \"#utility.yul\":1408:1471   */\n    tag_194:\n        /* \"#utility.yul\":1355:1477   */\n      pop\n      jump\t// out\n        /* \"#utility.yul\":1483:1622   */\n    tag_145:\n        /* \"#utility.yul\":1529:1534   */\n      0x00\n        /* \"#utility.yul\":1567:1573   */\n      dup2\n        /* \"#utility.yul\":1554:1574   */\n      calldataload\n        /* \"#utility.yul\":1545:1574   */\n      swap1\n      pop\n        /* \"#utility.yul\":1583:1616   */\n      tag_196\n        /* \"#utility.yul\":1610:1615   */\n      dup2\n        /* \"#utility.yul\":1583:1616   */\n      tag_144\n      jump\t// in\n    tag_196:\n        /* \"#utility.yul\":1483:1622   */\n      swap3\n      swap2\n      pop\n      pop\n      jump\t// out\n        /* \"#utility.yul\":1628:2102   */\n    tag_32:\n        /* \"#utility.yul\":1696:1702   */\n      0x00\n        /* \"#utility.yul\":1704:1710   */\n      dup1\n        /* \"#utility.yul\":1753:1755   */\n      0x40\n        /* \"#utility.yul\":1741:1750   */\n      dup4\n        /* \"#utility.yul\":1732:1739   */\n      dup6\n        /* \"#utility.yul\":1728:1751   */\n      sub\n        /* \"#utility.yul\":1724:1756   */\n      slt\n        /* \"#utility.yul\":1721:1840   */\n      iszero\n      tag_198\n      jumpi\n        /* \"#utility.yul\":1759:1838   */\n      tag_199\n      tag_142\n      jump\t// in\n    tag_199:\n        /* \"#utility.yul\":1721:1840   */\n    tag_198:\n        /* \"#utility.yul\":1879:1880   */\n      0x00\n        /* \"#utility.yul\":1904:1957   */\n      tag_200\n        /* \"#utility.yul\":1949:1956   */\n      dup6\n        /* \"#utility.yul\":1940:1946   */\n      dup3\n        /* \"#utility.yul\":1929:1938   */\n      dup7\n        /* \"#utility.yul\":1925:1947   */\n      add\n        /* \"#utility.yul\":1904:1957   */\n      tag_145\n      jump\t// in\n    tag_200:\n        /* \"#utility.yul\":1894:1957   */\n      swap3\n      pop\n        /* \"#utility.yul\":1850:1967   */\n      pop\n        /* \"#utility.yul\":2006:2008   */\n      0x20\n        /* \"#utility.yul\":2032:2085   */\n      tag_201\n        /* \"#utility.yul\":2077:2084   */\n      dup6\n        /* \"#utility.yul\":2068:2074   */\n      dup3\n        /* \"#utility.yul\":2057:2066   */\n      dup7\n        /* \"#utility.yul\":2053:2075   */\n      add\n        /* \"#utility.yul\":2032:2085   */\n      tag_145\n      jump\t// in\n    tag_201:\n        /* \"#utility.yul\":2022:2085   */\n      swap2\n      pop\n        /* \"#utility.yul\":1977:2095   */\n      pop\n        /* \"#utility.yul\":1628:2102   */\n      swap3\n      pop\n      swap3\n      swap1\n      pop\n      jump\t// out\n        /* \"#utility.yul\":2108:2212   */\n    tag_146:\n        /* \"#utility.yul\":2153:2160   */\n      0x00\n        /* \"#utility.yul\":2182:2206   */\n      tag_203\n        /* \"#utility.yul\":2200:2205   */\n      dup3\n        /* \"#utility.yul\":2182:2206   */\n      tag_138\n      jump\t// in\n    tag_203:\n        /* \"#utility.yul\":2171:2206   */\n      swap1\n      pop\n        /* \"#utility.yul\":2108:2212   */\n      swap2\n      swap1\n      pop\n      jump\t// out\n        /* \"#utility.yul\":2218:2360   */\n    tag_147:\n        /* \"#utility.yul\":2321:2353   */\n      tag_205\n        /* \"#utility.yul\":2347:2352   */\n      dup2\n        /* \"#utility.yul\":2321:2353   */\n      tag_146\n      jump\t// in\n    tag_205:\n        /* \"#utility.yul\":2316:2319   */\n      dup3\n        /* \"#utility.yul\":2309:2354   */\n      mstore\n        /* \"#utility.yul\":2218:2360   */\n      pop\n      pop\n      jump\t// out\n        /* \"#utility.yul\":2366:2620   */\n    tag_41:\n        /* \"#utility.yul\":2475:2479   */\n      0x00\n        /* \"#utility.yul\":2513:2515   */\n      0x20\n        /* \"#utility.yul\":2502:2511   */\n      dup3\n        /* \"#utility.yul\":2498:2516   */\n      add\n        /* \"#utility.yul\":2490:2516   */\n      swap1\n      pop\n        /* \"#utility.yul\":2526:2613   */\n      tag_207\n        /* \"#utility.yul\":2610:2611   */\n      0x00\n        /* \"#utility.yul\":2599:2608   */\n      dup4\n        /* \"#utility.yul\":2595:2612   */\n      add\n        /* \"#utility.yul\":2586:2592   */\n      dup5\n        /* \"#utility.yul\":2526:2613   */\n      tag_147\n      jump\t// in\n    tag_207:\n        /* \"#utility.yul\":2366:2620   */\n      swap3\n      swap2\n      pop\n      pop\n      jump\t// out\n        /* \"#utility.yul\":2626:2806   */\n    tag_73:\n        /* \"#utility.yul\":2674:2751   */\n      0x4e487b7100000000000000000000000000000000000000000000000000000000\n        /* \"#utility.yul\":2671:2672   */\n      0x00\n        /* \"#utility.yul\":2664:2752   */\n      mstore\n        /* \"#utility.yul\":2771:2775   */\n      0x21\n        /* \"#utility.yul\":2768:2769   */\n      0x04\n        /* \"#utility.yul\":2761:2776   */\n      mstore\n        /* \"#utility.yul\":2795:2799   */\n      0x24\n        /* \"#utility.yul\":2792:2793   */\n      0x00\n        /* \"#utility.yul\":2785:2800   */\n      revert\n        /* \"#utility.yul\":2812:2925   */\n    tag_148:\n        /* \"#utility.yul\":2893:2894   */\n      0x04\n        /* \"#utility.yul\":2886:2891   */\n      dup2\n        /* \"#utility.yul\":2883:2895   */\n      lt\n        /* \"#utility.yul\":2873:2919   */\n      tag_210\n      jumpi\n        /* \"#utility.yul\":2899:2917   */\n      tag_211\n      tag_73\n      jump\t// in\n    tag_211:\n        /* \"#utility.yul\":2873:2919   */\n    tag_210:\n        /* \"#utility.yul\":2812:2925   */\n      pop\n      jump\t// out\n        /* \"#utility.yul\":2931:3058   */\n    tag_149:\n        /* \"#utility.yul\":2976:2983   */\n      0x00\n        /* \"#utility.yul\":3005:3010   */\n      dup2\n        /* \"#utility.yul\":2994:3010   */\n      swap1\n      pop\n        /* \"#utility.yul\":3011:3052   */\n      tag_213\n        /* \"#utility.yul\":3046:3051   */\n      dup3\n        /* \"#utility.yul\":3011:3052   */\n      tag_148\n      jump\t// in\n    tag_213:\n        /* \"#utility.yul\":2931:3058   */\n      swap2\n      swap1\n      pop\n      jump\t// out\n        /* \"#utility.yul\":3064:3191   */\n    tag_150:\n        /* \"#utility.yul\":3120:3129   */\n      0x00\n        /* \"#utility.yul\":3153:3185   */\n      tag_215\n        /* \"#utility.yul\":3179:3184   */\n      dup3\n        /* \"#utility.yul\":3153:3185   */\n      tag_149\n      jump\t// in\n    tag_215:\n        /* \"#utility.yul\":3140:3185   */\n      swap1\n      pop\n        /* \"#utility.yul\":3064:3191   */\n      swap2\n      swap1\n      pop\n      jump\t// out\n        /* \"#utility.yul\":3197:3340   */\n    tag_151:\n        /* \"#utility.yul\":3290:3333   */\n      tag_217\n        /* \"#utility.yul\":3327:3332   */\n      dup2\n        /* \"#utility.yul\":3290:3333   */\n      tag_150\n      jump\t// in\n    tag_217:\n        /* \"#utility.yul\":3285:3288   */\n      dup3\n        /* \"#utility.yul\":3278:3334   */\n      mstore\n        /* \"#utility.yul\":3197:3340   */\n      pop\n      pop\n      jump\t// out\n        /* \"#utility.yul\":3346:3580   */\n    tag_49:\n        /* \"#utility.yul\":3445:3449   */\n      0x00\n        /* \"#utility.yul\":3483:3485   */\n      0x20\n        /* \"#utility.yul\":3472:3481   */\n      dup3\n        /* \"#utility.yul\":3468:3486   */\n      add\n        /* \"#utility.yul\":3460:3486   */\n      swap1\n      pop\n        /* \"#utility.yul\":3496:3573   */\n      tag_219\n        /* \"#utility.yul\":3570:3571   */\n      0x00\n        /* \"#utility.yul\":3559:3568   */\n      dup4\n        /* \"#utility.yul\":3555:3572   */\n      add\n        /* \"#utility.yul\":3546:3552   */\n      dup5\n        /* \"#utility.yul\":3496:3573   */\n      tag_151\n      jump\t// in\n    tag_219:\n        /* \"#utility.yul\":3346:3580   */\n      swap3\n      swap2\n      pop\n      pop\n      jump\t// out\n        /* \"#utility.yul\":3586:3915   */\n    tag_59:\n        /* \"#utility.yul\":3645:3651   */\n      0x00\n        /* \"#utility.yul\":3694:3696   */\n      0x20\n        /* \"#utility.yul\":3682:3691   */\n      dup3\n        /* \"#utility.yul\":3673:3680   */\n      dup5\n        /* \"#utility.yul\":3669:3692   */\n      sub\n        /* \"#utility.yul\":3665:3697   */\n      slt\n        /* \"#utility.yul\":3662:3781   */\n      iszero\n      tag_221\n      jumpi\n        /* \"#utility.yul\":3700:3779   */\n      tag_222\n      tag_142\n      jump\t// in\n    tag_222:\n        /* \"#utility.yul\":3662:3781   */\n    tag_221:\n        /* \"#utility.yul\":3820:3821   */\n      0x00\n        /* \"#utility.yul\":3845:3898   */\n      tag_223\n        /* \"#utility.yul\":3890:3897   */\n      dup5\n        /* \"#utility.yul\":3881:3887   */\n      dup3\n        /* \"#utility.yul\":3870:3879   */\n      dup6\n        /* \"#utility.yul\":3866:3888   */\n      add\n        /* \"#utility.yul\":3845:3898   */\n      tag_145\n      jump\t// in\n    tag_223:\n        /* \"#utility.yul\":3835:3898   */\n      swap2\n      pop\n        /* \"#utility.yul\":3791:3908   */\n      pop\n        /* \"#utility.yul\":3586:3915   */\n      swap3\n      swap2\n      pop\n      pop\n      jump\t// out\n        /* \"#utility.yul\":3921:4090   */\n    tag_152:\n        /* \"#utility.yul\":4005:4016   */\n      0x00\n        /* \"#utility.yul\":4039:4045   */\n      dup3\n        /* \"#utility.yul\":4034:4037   */\n      dup3\n        /* \"#utility.yul\":4027:4046   */\n      mstore\n        /* \"#utility.yul\":4079:4083   */\n      0x20\n        /* \"#utility.yul\":4074:4077   */\n      dup3\n        /* \"#utility.yul\":4070:4084   */\n      add\n        /* \"#utility.yul\":4055:4084   */\n      swap1\n      pop\n        /* \"#utility.yul\":3921:4090   */\n      swap3\n      swap2\n      pop\n      pop\n      jump\t// out\n        /* \"#utility.yul\":4096:4278   */\n    tag_153:\n        /* \"#utility.yul\":4236:4270   */\n      0x4f6e6c7920696e766573746f722063616e20736574206d696c6573746f6e6573\n        /* \"#utility.yul\":4232:4233   */\n      0x00\n        /* \"#utility.yul\":4224:4230   */\n      dup3\n        /* \"#utility.yul\":4220:4234   */\n      add\n        /* \"#utility.yul\":4213:4271   */\n      mstore\n        /* \"#utility.yul\":4096:4278   */\n      pop\n      jump\t// out\n        /* \"#utility.yul\":4284:4650   */\n    tag_154:\n        /* \"#utility.yul\":4426:4429   */\n      0x00\n        /* \"#utility.yul\":4447:4514   */\n      tag_227\n        /* \"#utility.yul\":4511:4513   */\n      0x20\n        /* \"#utility.yul\":4506:4509   */\n      dup4\n        /* \"#utility.yul\":4447:4514   */\n      tag_152\n      jump\t// in\n    tag_227:\n        /* \"#utility.yul\":4440:4514   */\n      swap2\n      pop\n        /* \"#utility.yul\":4523:4616   */\n      tag_228\n        /* \"#utility.yul\":4612:4615   */\n      dup3\n        /* \"#utility.yul\":4523:4616   */\n      tag_153\n      jump\t// in\n    tag_228:\n        /* \"#utility.yul\":4641:4643   */\n      0x20\n        /* \"#utility.yul\":4636:4639   */\n      dup3\n        /* \"#utility.yul\":4632:4644   */\n      add\n        /* \"#utility.yul\":4625:4644   */\n      swap1\n      pop\n        /* \"#utility.yul\":4284:4650   */\n      swap2\n      swap1\n      pop\n      jump\t// out\n        /* \"#utility.yul\":4656:5075   */\n    tag_70:\n        /* \"#utility.yul\":4822:4826   */\n      0x00\n        /* \"#utility.yul\":4860:4862   */\n      0x20\n        /* \"#utility.yul\":4849:4858   */\n      dup3\n        /* \"#utility.yul\":4845:4863   */\n      add\n        /* \"#utility.yul\":4837:4863   */\n      swap1\n      pop\n        /* \"#utility.yul\":4909:4918   */\n      dup2\n        /* \"#utility.yul\":4903:4907   */\n      dup2\n        /* \"#utility.yul\":4899:4919   */\n      sub\n        /* \"#utility.yul\":4895:4896   */\n      0x00\n        /* \"#utility.yul\":4884:4893   */\n      dup4\n        /* \"#utility.yul\":4880:4897   */\n      add\n        /* \"#utility.yul\":4873:4920   */\n      mstore\n        /* \"#utility.yul\":4937:5068   */\n      tag_230\n        /* \"#utility.yul\":5063:5067   */\n      dup2\n        /* \"#utility.yul\":4937:5068   */\n      tag_154\n      jump\t// in\n    tag_230:\n        /* \"#utility.yul\":4929:5068   */\n      swap1\n      pop\n        /* \"#utility.yul\":4656:5075   */\n      swap2\n      swap1\n      pop\n      jump\t// out\n        /* \"#utility.yul\":5081:5245   */\n    tag_155:\n        /* \"#utility.yul\":5221:5237   */\n      0x4e6f742066756e64656420796574000000000000000000000000000000000000\n        /* \"#utility.yul\":5217:5218   */\n      0x00\n        /* \"#utility.yul\":5209:5215   */\n      dup3\n        /* \"#utility.yul\":5205:5219   */\n      add\n        /* \"#utility.yul\":5198:5238   */\n      mstore\n        /* \"#utility.yul\":5081:5245   */\n      pop\n      jump\t// out\n        /* \"#utility.yul\":5251:5617   */\n    tag_156:\n        /* \"#utility.yul\":5393:5396   */\n      0x00\n        /* \"#utility.yul\":5414:5481   */\n      tag_233\n        /* \"#utility.yul\":5478:5480   */\n      0x0e\n        /* \"#utility.yul\":5473:5476   */\n      dup4\n        /* \"#utility.yul\":5414:5481   */\n      tag_152\n      jump\t// in\n    tag_233:\n        /* \"#utility.yul\":5407:5481   */\n      swap2\n      pop\n        /* \"#utility.yul\":5490:5583   */\n      tag_234\n        /* \"#utility.yul\":5579:5582   */\n      dup3\n        /* \"#utility.yul\":5490:5583   */\n      tag_155\n      jump\t// in\n    tag_234:\n        /* \"#utility.yul\":5608:5610   */\n      0x20\n        /* \"#utility.yul\":5603:5606   */\n      dup3\n        /* \"#utility.yul\":5599:5611   */\n      add\n        /* \"#utility.yul\":5592:5611   */\n      swap1\n      pop\n        /* \"#utility.yul\":5251:5617   */\n      swap2\n      swap1\n      pop\n      jump\t// out\n        /* \"#utility.yul\":5623:6042   */\n    tag_78:\n        /* \"#utility.yul\":5789:5793   */\n      0x00\n        /* \"#utility.yul\":5827:5829   */\n      0x20\n        /* \"#utility.yul\":5816:5825   */\n      dup3\n        /* \"#utility.yul\":5812:5830   */\n      add\n        /* \"#utility.yul\":5804:5830   */\n      swap1\n      pop\n        /* \"#utility.yul\":5876:5885   */\n      dup2\n        /* \"#utility.yul\":5870:5874   */\n      dup2\n        /* \"#utility.yul\":5866:5886   */\n      sub\n        /* \"#utility.yul\":5862:5863   */\n      0x00\n        /* \"#utility.yul\":5851:5860   */\n      dup4\n        /* \"#utility.yul\":5847:5864   */\n      add\n        /* \"#utility.yul\":5840:5887   */\n      mstore\n        /* \"#utility.yul\":5904:6035   */\n      tag_236\n        /* \"#utility.yul\":6030:6034   */\n      dup2\n        /* \"#utility.yul\":5904:6035   */\n      tag_156\n      jump\t// in\n    tag_236:\n        /* \"#utility.yul\":5896:6035   */\n      swap1\n      pop\n        /* \"#utility.yul\":5623:6042   */\n      swap2\n      swap1\n      pop\n      jump\t// out\n        /* \"#utility.yul\":6048:6215   */\n    tag_157:\n        /* \"#utility.yul\":6188:6207   */\n      0x496e76616c6964206d696c6573746f6e65000000000000000000000000000000\n        /* \"#utility.yul\":6184:6185   */\n      0x00\n        /* \"#utility.yul\":6176:6182   */\n      dup3\n        /* \"#utility.yul\":6172:6186   */\n      add\n        /* \"#utility.yul\":6165:6208   */\n      mstore\n        /* \"#utility.yul\":6048:6215   */\n      pop\n      jump\t// out\n        /* \"#utility.yul\":6221:6587   */\n    tag_158:\n        /* \"#utility.yul\":6363:6366   */\n      0x00\n        /* \"#utility.yul\":6384:6451   */\n      tag_239\n        /* \"#utility.yul\":6448:6450   */\n      0x11\n        /* \"#utility.yul\":6443:6446   */\n      dup4\n        /* \"#utility.yul\":6384:6451   */\n      tag_152\n      jump\t// in\n    tag_239:\n        /* \"#utility.yul\":6377:6451   */\n      swap2\n      pop\n        /* \"#utility.yul\":6460:6553   */\n      tag_240\n        /* \"#utility.yul\":6549:6552   */\n      dup3\n        /* \"#utility.yul\":6460:6553   */\n      tag_157\n      jump\t// in\n    tag_240:\n        /* \"#utility.yul\":6578:6580   */\n      0x20\n        /* \"#utility.yul\":6573:6576   */\n      dup3\n        /* \"#utility.yul\":6569:6581   */\n      add\n        /* \"#utility.yul\":6562:6581   */\n      swap1\n      pop\n        /* \"#utility.yul\":6221:6587   */\n      swap2\n      swap1\n      pop\n      jump\t// out\n        /* \"#utility.yul\":6593:7012   */\n    tag_81:\n        /* \"#utility.yul\":6759:6763   */\n      0x00\n        /* \"#utility.yul\":6797:6799   */\n      0x20\n        /* \"#utility.yul\":6786:6795   */\n      dup3\n        /* \"#utility.yul\":6782:6800   */\n      add\n        /* \"#utility.yul\":6774:6800   */\n      swap1\n      pop\n        /* \"#utility.yul\":6846:6855   */\n      dup2\n        /* \"#utility.yul\":6840:6844   */\n      dup2\n        /* \"#utility.yul\":6836:6856   */\n      sub\n        /* \"#utility.yul\":6832:6833   */\n      0x00\n        /* \"#utility.yul\":6821:6830   */\n      dup4\n        /* \"#utility.yul\":6817:6834   */\n      add\n        /* \"#utility.yul\":6810:6857   */\n      mstore\n        /* \"#utility.yul\":6874:7005   */\n      tag_242\n        /* \"#utility.yul\":7000:7004   */\n      dup2\n        /* \"#utility.yul\":6874:7005   */\n      tag_158\n      jump\t// in\n    tag_242:\n        /* \"#utility.yul\":6866:7005   */\n      swap1\n      pop\n        /* \"#utility.yul\":6593:7012   */\n      swap2\n      swap1\n      pop\n      jump\t// out\n        /* \"#utility.yul\":7018:7192   */\n    tag_159:\n        /* \"#utility.yul\":7158:7184   */\n      0x4f6e6c7920696e766573746f722063616e20726566756e640000000000000000\n        /* \"#utility.yul\":7154:7155   */\n      0x00\n        /* \"#utility.yul\":7146:7152   */\n      dup3\n        /* \"#utility.yul\":7142:7156   */\n      add\n        /* \"#utility.yul\":7135:7185   */\n      mstore\n        /* \"#utility.yul\":7018:7192   */\n      pop\n      jump\t// out\n        /* \"#utility.yul\":7198:7564   */\n    tag_160:\n        /* \"#utility.yul\":7340:7343   */\n      0x00\n        /* \"#utility.yul\":7361:7428   */\n      tag_245\n        /* \"#utility.yul\":7425:7427   */\n      0x18\n        /* \"#utility.yul\":7420:7423   */\n      dup4\n        /* \"#utility.yul\":7361:7428   */\n      tag_152\n      jump\t// in\n    tag_245:\n        /* \"#utility.yul\":7354:7428   */\n      swap2\n      pop\n        /* \"#utility.yul\":7437:7530   */\n      tag_246\n        /* \"#utility.yul\":7526:7529   */\n      dup3\n        /* \"#utility.yul\":7437:7530   */\n      tag_159\n      jump\t// in\n    tag_246:\n        /* \"#utility.yul\":7555:7557   */\n      0x20\n        /* \"#utility.yul\":7550:7553   */\n      dup3\n        /* \"#utility.yul\":7546:7558   */\n      add\n        /* \"#utility.yul\":7539:7558   */\n      swap1\n      pop\n        /* \"#utility.yul\":7198:7564   */\n      swap2\n      swap1\n      pop\n      jump\t// out\n        /* \"#utility.yul\":7570:7989   */\n    tag_85:\n        /* \"#utility.yul\":7736:7740   */\n      0x00\n        /* \"#utility.yul\":7774:7776   */\n      0x20\n        /* \"#utility.yul\":7763:7772   */\n      dup3\n        /* \"#utility.yul\":7759:7777   */\n      add\n        /* \"#utility.yul\":7751:7777   */\n      swap1\n      pop\n        /* \"#utility.yul\":7823:7832   */\n      dup2\n        /* \"#utility.yul\":7817:7821   */\n      dup2\n        /* \"#utility.yul\":7813:7833   */\n      sub\n        /* \"#utility.yul\":7809:7810   */\n      0x00\n        /* \"#utility.yul\":7798:7807   */\n      dup4\n        /* \"#utility.yul\":7794:7811   */\n      add\n        /* \"#utility.yul\":7787:7834   */\n      mstore\n        /* \"#utility.yul\":7851:7982   */\n      tag_248\n        /* \"#utility.yul\":7977:7981   */\n      dup2\n        /* \"#utility.yul\":7851:7982   */\n      tag_160\n      jump\t// in\n    tag_248:\n        /* \"#utility.yul\":7843:7982   */\n      swap1\n      pop\n        /* \"#utility.yul\":7570:7989   */\n      swap2\n      swap1\n      pop\n      jump\t// out\n        /* \"#utility.yul\":7995:8155   */\n    tag_161:\n        /* \"#utility.yul\":8135:8147   */\n      0x4e6f742066756e64656400000000000000000000000000000000000000000000\n        /* \"#utility.yul\":8131:8132   */\n      0x00\n        /* \"#utility.yul\":8123:8129   */\n      dup3\n        /* \"#utility.yul\":8119:8133   */\n      add\n        /* \"#utility.yul\":8112:8148   */\n      mstore\n        /* \"#utility.yul\":7995:8155   */\n      pop\n      jump\t// out\n        /* \"#utility.yul\":8161:8527   */\n    tag_162:\n        /* \"#utility.yul\":8303:8306   */\n      0x00\n        /* \"#utility.yul\":8324:8391   */\n      tag_251\n        /* \"#utility.yul\":8388:8390   */\n      0x0a\n        /* \"#utility.yul\":8383:8386   */\n      dup4\n        /* \"#utility.yul\":8324:8391   */\n      tag_152\n      jump\t// in\n    tag_251:\n        /* \"#utility.yul\":8317:8391   */\n      swap2\n      pop\n        /* \"#utility.yul\":8400:8493   */\n      tag_252\n        /* \"#utility.yul\":8489:8492   */\n      dup3\n        /* \"#utility.yul\":8400:8493   */\n      tag_161\n      jump\t// in\n    tag_252:\n        /* \"#utility.yul\":8518:8520   */\n      0x20\n        /* \"#utility.yul\":8513:8516   */\n      dup3\n        /* \"#utility.yul\":8509:8521   */\n      add\n        /* \"#utility.yul\":8502:8521   */\n      swap1\n      pop\n        /* \"#utility.yul\":8161:8527   */\n      swap2\n      swap1\n      pop\n      jump\t// out\n        /* \"#utility.yul\":8533:8952   */\n    tag_92:\n        /* \"#utility.yul\":8699:8703   */\n      0x00\n        /* \"#utility.yul\":8737:8739   */\n      0x20\n        /* \"#utility.yul\":8726:8735   */\n      dup3\n        /* \"#utility.yul\":8722:8740   */\n      add\n        /* \"#utility.yul\":8714:8740   */\n      swap1\n      pop\n        /* \"#utility.yul\":8786:8795   */\n      dup2\n        /* \"#utility.yul\":8780:8784   */\n      dup2\n        /* \"#utility.yul\":8776:8796   */\n      sub\n        /* \"#utility.yul\":8772:8773   */\n      0x00\n        /* \"#utility.yul\":8761:8770   */\n      dup4\n        /* \"#utility.yul\":8757:8774   */\n      add\n        /* \"#utility.yul\":8750:8797   */\n      mstore\n        /* \"#utility.yul\":8814:8945   */\n      tag_254\n        /* \"#utility.yul\":8940:8944   */\n      dup2\n        /* \"#utility.yul\":8814:8945   */\n      tag_162\n      jump\t// in\n    tag_254:\n        /* \"#utility.yul\":8806:8945   */\n      swap1\n      pop\n        /* \"#utility.yul\":8533:8952   */\n      swap2\n      swap1\n      pop\n      jump\t// out\n        /* \"#utility.yul\":8958:9133   */\n    tag_163:\n        /* \"#utility.yul\":9098:9125   */\n      0x4f6e6c7920696e766573746f722063616e2072656c6561736500000000000000\n        /* \"#utility.yul\":9094:9095   */\n      0x00\n        /* \"#utility.yul\":9086:9092   */\n      dup3\n        /* \"#utility.yul\":9082:9096   */\n      add\n        /* \"#utility.yul\":9075:9126   */\n      mstore\n        /* \"#utility.yul\":8958:9133   */\n      pop\n      jump\t// out\n        /* \"#utility.yul\":9139:9505   */\n    tag_164:\n        /* \"#utility.yul\":9281:9284   */\n      0x00\n        /* \"#utility.yul\":9302:9369   */\n      tag_257\n        /* \"#utility.yul\":9366:9368   */\n      0x19\n        /* \"#utility.yul\":9361:9364   */\n      dup4\n        /* \"#utility.yul\":9302:9369   */\n      tag_152\n      jump\t// in\n    tag_257:\n        /* \"#utility.yul\":9295:9369   */\n      swap2\n      pop\n        /* \"#utility.yul\":9378:9471   */\n      tag_258\n        /* \"#utility.yul\":9467:9470   */\n      dup3\n        /* \"#utility.yul\":9378:9471   */\n      tag_163\n      jump\t// in\n    tag_258:\n        /* \"#utility.yul\":9496:9498   */\n      0x20\n        /* \"#utility.yul\":9491:9494   */\n      dup3\n        /* \"#utility.yul\":9487:9499   */\n      add\n        /* \"#utility.yul\":9480:9499   */\n      swap1\n      pop\n        /* \"#utility.yul\":9139:9505   */\n      swap2\n      swap1\n      pop\n      jump\t// out\n        /* \"#utility.yul\":9511:9930   */\n    tag_100:\n        /* \"#utility.yul\":9677:9681   */\n      0x00\n        /* \"#utility.yul\":9715:9717   */\n      0x20\n        /* \"#utility.yul\":9704:9713   */\n      dup3\n        /* \"#utility.yul\":9700:9718   */\n      add\n        /* \"#utility.yul\":9692:9718   */\n      swap1\n      pop\n        /* \"#utility.yul\":9764:9773   */\n      dup2\n        /* \"#utility.yul\":9758:9762   */\n      dup2\n        /* \"#utility.yul\":9754:9774   */\n      sub\n        /* \"#utility.yul\":9750:9751   */\n      0x00\n        /* \"#utility.yul\":9739:9748   */\n      dup4\n        /* \"#utility.yul\":9735:9752   */\n      add\n        /* \"#utility.yul\":9728:9775   */\n      mstore\n        /* \"#utility.yul\":9792:9923   */\n      tag_260\n        /* \"#utility.yul\":9918:9922   */\n      dup2\n        /* \"#utility.yul\":9792:9923   */\n      tag_164\n      jump\t// in\n    tag_260:\n        /* \"#utility.yul\":9784:9923   */\n      swap1\n      pop\n        /* \"#utility.yul\":9511:9930   */\n      swap2\n      swap1\n      pop\n      jump\t// out\n        /* \"#utility.yul\":9936:10105   */\n    tag_165:\n        /* \"#utility.yul\":10076:10097   */\n      0x416c6c206d696c6573746f6e657320646f6e6500000000000000000000000000\n        /* \"#utility.yul\":10072:10073   */\n      0x00\n        /* \"#utility.yul\":10064:10070   */\n      dup3\n        /* \"#utility.yul\":10060:10074   */\n      add\n        /* \"#utility.yul\":10053:10098   */\n      mstore\n        /* \"#utility.yul\":9936:10105   */\n      pop\n      jump\t// out\n        /* \"#utility.yul\":10111:10477   */\n    tag_166:\n        /* \"#utility.yul\":10253:10256   */\n      0x00\n        /* \"#utility.yul\":10274:10341   */\n      tag_263\n        /* \"#utility.yul\":10338:10340   */\n      0x13\n        /* \"#utility.yul\":10333:10336   */\n      dup4\n        /* \"#utility.yul\":10274:10341   */\n      tag_152\n      jump\t// in\n    tag_263:\n        /* \"#utility.yul\":10267:10341   */\n      swap2\n      pop\n        /* \"#utility.yul\":10350:10443   */\n      tag_264\n        /* \"#utility.yul\":10439:10442   */\n      dup3\n        /* \"#utility.yul\":10350:10443   */\n      tag_165\n      jump\t// in\n    tag_264:\n        /* \"#utility.yul\":10468:10470   */\n      0x20\n        /* \"#utility.yul\":10463:10466   */\n      dup3\n        /* \"#utility.yul\":10459:10471   */\n      add\n        /* \"#utility.yul\":10452:10471   */\n      swap1\n      pop\n        /* \"#utility.yul\":10111:10477   */\n      swap2\n      swap1\n      pop\n      jump\t// out\n        /* \"#utility.yul\":10483:10902   */\n    tag_109:\n        /* \"#utility.yul\":10649:10653   */\n      0x00\n        /* \"#utility.yul\":10687:10689   */\n      0x20\n        /* \"#utility.yul\":10676:10685   */\n      dup3\n        /* \"#utility.yul\":10672:10690   */\n      add\n        /* \"#utility.yul\":10664:10690   */\n      swap1\n      pop\n        /* \"#utility.yul\":10736:10745   */\n      dup2\n        /* \"#utility.yul\":10730:10734   */\n      dup2\n        /* \"#utility.yul\":10726:10746   */\n      sub\n        /* \"#utility.yul\":10722:10723   */\n      0x00\n        /* \"#utility.yul\":10711:10720   */\n      dup4\n        /* \"#utility.yul\":10707:10724   */\n      add\n        /* \"#utility.yul\":10700:10747   */\n      mstore\n        /* \"#utility.yul\":10764:10895   */\n      tag_266\n        /* \"#utility.yul\":10890:10894   */\n      dup2\n        /* \"#utility.yul\":10764:10895   */\n      tag_166\n      jump\t// in\n    tag_266:\n        /* \"#utility.yul\":10756:10895   */\n      swap1\n      pop\n        /* \"#utility.yul\":10483:10902   */\n      swap2\n      swap1\n      pop\n      jump\t// out\n        /* \"#utility.yul\":10908:11082   */\n    tag_167:\n        /* \"#utility.yul\":11048:11074   */\n      0x4d696c6573746f6e6520616d6f756e74206e6f74207365740000000000000000\n        /* \"#utility.yul\":11044:11045   */\n      0x00\n        /* \"#utility.yul\":11036:11042   */\n      dup3\n        /* \"#utility.yul\":11032:11046   */\n      add\n        /* \"#utility.yul\":11025:11075   */\n      mstore\n        /* \"#utility.yul\":10908:11082   */\n      pop\n      jump\t// out\n        /* \"#utility.yul\":11088:11454   */\n    tag_168:\n        /* \"#utility.yul\":11230:11233   */\n      0x00\n        /* \"#utility.yul\":11251:11318   */\n      tag_269\n        /* \"#utility.yul\":11315:11317   */\n      0x18\n        /* \"#utility.yul\":11310:11313   */\n      dup4\n        /* \"#utility.yul\":11251:11318   */\n      tag_152\n      jump\t// in\n    tag_269:\n        /* \"#utility.yul\":11244:11318   */\n      swap2\n      pop\n        /* \"#utility.yul\":11327:11420   */\n      tag_270\n        /* \"#utility.yul\":11416:11419   */\n      dup3\n        /* \"#utility.yul\":11327:11420   */\n      tag_167\n      jump\t// in\n    tag_270:\n        /* \"#utility.yul\":11445:11447   */\n      0x20\n        /* \"#utility.yul\":11440:11443   */\n      dup3\n        /* \"#utility.yul\":11436:11448   */\n      add\n        /* \"#utility.yul\":11429:11448   */\n      swap1\n      pop\n        /* \"#utility.yul\":11088:11454   */\n      swap2\n      swap1\n      pop\n      jump\t// out\n        /* \"#utility.yul\":11460:11879   */\n    tag_112:\n        /* \"#utility.yul\":11626:11630   */\n      0x00\n        /* \"#utility.yul\":11664:11666   */\n      0x20\n        /* \"#utility.yul\":11653:11662   */\n      dup3\n        /* \"#utility.yul\":11649:11667   */\n      add\n        /* \"#utility.yul\":11641:11667   */\n      swap1\n      pop\n        /* \"#utility.yul\":11713:11722   */\n      dup2\n        /* \"#utility.yul\":11707:11711   */\n      dup2\n        /* \"#utility.yul\":11703:11723   */\n      sub\n        /* \"#utility.yul\":11699:11700   */\n      0x00\n        /* \"#utility.yul\":11688:11697   */\n      dup4\n        /* \"#utility.yul\":11684:11701   */\n      add\n        /* \"#utility.yul\":11677:11724   */\n      mstore\n        /* \"#utility.yul\":11741:11872   */\n      tag_272\n        /* \"#utility.yul\":11867:11871   */\n      dup2\n        /* \"#utility.yul\":11741:11872   */\n      tag_168\n      jump\t// in\n    tag_272:\n        /* \"#utility.yul\":11733:11872   */\n      swap1\n      pop\n        /* \"#utility.yul\":11460:11879   */\n      swap2\n      swap1\n      pop\n      jump\t// out\n        /* \"#utility.yul\":11885:12065   */\n    tag_169:\n        /* \"#utility.yul\":11933:12010   */\n      0x4e487b7100000000000000000000000000000000000000000000000000000000\n        /* \"#utility.yul\":11930:11931   */\n      0x00\n        /* \"#utility.yul\":11923:12011   */\n      mstore\n        /* \"#utility.yul\":12030:12034   */\n      0x11\n        /* \"#utility.yul\":12027:12028   */\n      0x04\n        /* \"#utility.yul\":12020:12035   */\n      mstore\n        /* \"#utility.yul\":12054:12058   */\n      0x24\n        /* \"#utility.yul\":12051:12052   */\n      0x00\n        /* \"#utility.yul\":12044:12059   */\n      revert\n        /* \"#utility.yul\":12071:12304   */\n    tag_116:\n        /* \"#utility.yul\":12110:12113   */\n      0x00\n        /* \"#utility.yul\":12133:12157   */\n      tag_275\n        /* \"#utility.yul\":12151:12156   */\n      dup3\n        /* \"#utility.yul\":12133:12157   */\n      tag_136\n      jump\t// in\n    tag_275:\n        /* \"#utility.yul\":12124:12157   */\n      swap2\n      pop\n        /* \"#utility.yul\":12179:12245   */\n      0xffffffffffffffffffffffffffffffffffffffffffffffffffffffffffffffff\n        /* \"#utility.yul\":12172:12177   */\n      dup3\n        /* \"#utility.yul\":12169:12246   */\n      sub\n        /* \"#utility.yul\":12166:12269   */\n      tag_276\n      jumpi\n        /* \"#utility.yul\":12249:12267   */\n      tag_277\n      tag_169\n      jump\t// in\n    tag_277:\n        /* \"#utility.yul\":12166:12269   */\n    tag_276:\n        /* \"#utility.yul\":12296:12297   */\n      0x01\n        /* \"#utility.yul\":12289:12294   */\n      dup3\n        /* \"#utility.yul\":12285:12298   */\n      add\n        /* \"#utility.yul\":12278:12298   */\n      swap1\n      pop\n        /* \"#utility.yul\":12071:12304   */\n      swap2\n      swap1\n      pop\n      jump\t// out\n        /* \"#utility.yul\":12310:12485   */\n    tag_170:\n        /* \"#utility.yul\":12450:12477   */\n      0x4f6e6c7920696e766573746f722063616e206465706f73697400000000000000\n        /* \"#utility.yul\":12446:12447   */\n      0x00\n        /* \"#utility.yul\":12438:12444   */\n      dup3\n        /* \"#utility.yul\":12434:12448   */\n      add\n        /* \"#utility.yul\":12427:12478   */\n      mstore\n        /* \"#utility.yul\":12310:12485   */\n      pop\n      jump\t// out\n        /* \"#utility.yul\":12491:12857   */\n    tag_171:\n        /* \"#utility.yul\":12633:12636   */\n      0x00\n        /* \"#utility.yul\":12654:12721   */\n      tag_280\n        /* \"#utility.yul\":12718:12720   */\n      0x19\n        /* \"#utility.yul\":12713:12716   */\n      dup4\n        /* \"#utility.yul\":12654:12721   */\n      tag_152\n      jump\t// in\n    tag_280:\n        /* \"#utility.yul\":12647:12721   */\n      swap2\n      pop\n        /* \"#utility.yul\":12730:12823   */\n      tag_281\n        /* \"#utility.yul\":12819:12822   */\n      dup3\n        /* \"#utility.yul\":12730:12823   */\n      tag_170\n      jump\t// in\n    tag_281:\n        /* \"#utility.yul\":12848:12850   */\n      0x20\n        /* \"#utility.yul\":12843:12846   */\n      dup3\n        /* \"#utility.yul\":12839:12851   */\n      add\n        /* \"#utility.yul\":12832:12851   */\n      swap1\n      pop\n        /* \"#utility.yul\":12491:12857   */\n      swap2\n      swap1\n      pop\n      jump\t// out\n        /* \"#utility.yul\":12863:13282   */\n    tag_123:\n        /* \"#utility.yul\":13029:13033   */\n      0x00\n        /* \"#utility.yul\":13067:13069   */\n      0x20\n        /* \"#utility.yul\":13056:13065   */\n      dup3\n        /* \"#utility.yul\":13052:13070   */\n      add\n        /* \"#utility.yul\":13044:13070   */\n      swap1\n      pop\n        /* \"#utility.yul\":13116:13125   */\n      dup2\n        /* \"#utility.yul\":13110:13114   */\n      dup2\n        /* \"#utility.yul\":13106:13126   */\n      sub\n        /* \"#utility.yul\":13102:13103   */\n      0x00\n        /* \"#utility.yul\":13091:13100   */\n      dup4\n        /* \"#utility.yul\":13087:13104   */\n      add\n        /* \"#utility.yul\":13080:13127   */\n      mstore\n        /* \"#utility.yul\":13144:13275   */\n      tag_283\n        /* \"#utility.yul\":13270:13274   */\n      dup2\n        /* \"#utility.yul\":13144:13275   */\n      tag_171\n      jump\t// in\n    tag_283:\n        /* \"#utility.yul\":13136:13275   */\n      swap1\n      pop\n        /* \"#utility.yul\":12863:13282   */\n      swap2\n      swap1\n      pop\n      jump\t// out\n        /* \"#utility.yul\":13288:13452   */\n    tag_172:\n        /* \"#utility.yul\":13428:13444   */\n      0x416c72656164792066756e646564000000000000000000000000000000000000\n        /* \"#utility.yul\":13424:13425   */\n      0x00\n        /* \"#utility.yul\":13416:13422   */\n      dup3\n        /* \"#utility.yul\":13412:13426   */\n      add\n        /* \"#utility.yul\":13405:13445   */\n      mstore\n        /* \"#utility.yul\":13288:13452   */\n      pop\n      jump\t// out\n        /* \"#utility.yul\":13458:13824   */\n    tag_173:\n        /* \"#utility.yul\":13600:13603   */\n      0x00\n        /* \"#utility.yul\":13621:13688   */\n      tag_286\n        /* \"#utility.yul\":13685:13687   */\n      0x0e\n        /* \"#utility.yul\":13680:13683   */\n      dup4\n        /* \"#utility.yul\":13621:13688   */\n      tag_152\n      jump\t// in\n    tag_286:\n        /* \"#utility.yul\":13614:13688   */\n      swap2\n      pop\n        /* \"#utility.yul\":13697:13790   */\n      tag_287\n        /* \"#utility.yul\":13786:13789   */\n      dup3\n        /* \"#utility.yul\":13697:13790   */\n      tag_172\n      jump\t// in\n    tag_287:\n        /* \"#utility.yul\":13815:13817   */\n      0x20\n        /* \"#utility.yul\":13810:13813   */\n      dup3\n        /* \"#utility.yul\":13806:13818   */\n      add\n        /* \"#utility.yul\":13799:13818   */\n      swap1\n      pop\n        /* \"#utility.yul\":13458:13824   */\n      swap2\n      swap1\n      pop\n      jump\t// out\n        /* \"#utility.yul\":13830:14249   */\n    tag_130:\n        /* \"#utility.yul\":13996:14000   */\n      0x00\n        /* \"#utility.yul\":14034:14036   */\n      0x20\n        /* \"#utility.yul\":14023:14032   */\n      dup3\n        /* \"#utility.yul\":14019:14037   */\n      add\n        /* \"#utility.yul\":14011:14037   */\n      swap1\n      pop\n        /* \"#utility.yul\":14083:14092   */\n      dup2\n        /* \"#utility.yul\":14077:14081   */\n      dup2\n        /* \"#utility.yul\":14073:14093   */\n      sub\n        /* \"#utility.yul\":14069:14070   */\n      0x00\n        /* \"#utility.yul\":14058:14067   */\n      dup4\n        /* \"#utility.yul\":14054:14071   */\n      add\n        /* \"#utility.yul\":14047:14094   */\n      mstore\n        /* \"#utility.yul\":14111:14242   */\n      tag_289\n        /* \"#utility.yul\":14237:14241   */\n      dup2\n        /* \"#utility.yul\":14111:14242   */\n      tag_173\n      jump\t// in\n    tag_289:\n        /* \"#utility.yul\":14103:14242   */\n      swap1\n      pop\n        /* \"#utility.yul\":13830:14249   */\n      swap2\n      swap1\n      pop\n      jump\t// out\n        /* \"#utility.yul\":14255:14423   */\n    tag_174:\n        /* \"#utility.yul\":14395:14415   */\n      0x4d7573742073656e6420736f6d65204554480000000000000000000000000000\n        /* \"#utility.yul\":14391:14392   */\n      0x00\n        /* \"#utility.yul\":14383:14389   */\n      dup3\n        /* \"#utility.yul\":14379:14393   */\n      add\n        /* \"#utility.yul\":14372:14416   */\n      mstore\n        /* \"#utility.yul\":14255:14423   */\n      pop\n      jump\t// out\n        /* \"#utility.yul\":14429:14795   */\n    tag_175:\n        /* \"#utility.yul\":14571:14574   */\n      0x00\n        /* \"#utility.yul\":14592:14659   */\n      tag_292\n        /* \"#utility.yul\":14656:14658   */\n      0x12\n        /* \"#utility.yul\":14651:14654   */\n      dup4\n        /* \"#utility.yul\":14592:14659   */\n      tag_152\n      jump\t// in\n    tag_292:\n        /* \"#utility.yul\":14585:14659   */\n      swap2\n      pop\n        /* \"#utility.yul\":14668:14761   */\n      tag_293\n        /* \"#utility.yul\":14757:14760   */\n      dup3\n        /* \"#utility.yul\":14668:14761   */\n      tag_174\n      jump\t// in\n    tag_293:\n        /* \"#utility.yul\":14786:14788   */\n      0x20\n        /* \"#utility.yul\":14781:14784   */\n      dup3\n        /* \"#utility.yul\":14777:14789   */\n      add\n        /* \"#utility.yul\":14770:14789   */\n      swap1\n      pop\n        /* \"#utility.yul\":14429:14795   */\n      swap2\n      swap1\n      pop\n      jump\t// out\n        /* \"#utility.yul\":14801:15220   */\n    tag_133:\n        /* \"#utility.yul\":14967:14971   */\n      0x00\n        /* \"#utility.yul\":15005:15007   */\n      0x20\n        /* \"#utility.yul\":14994:15003   */\n      dup3\n        /* \"#utility.yul\":14990:15008   */\n      add\n        /* \"#utility.yul\":14982:15008   */\n      swap1\n      pop\n        /* \"#utility.yul\":15054:15063   */\n      dup2\n        /* \"#utility.yul\":15048:15052   */\n      dup2\n        /* \"#utility.yul\":15044:15064   */\n      sub\n        /* \"#utility.yul\":15040:15041   */\n      0x00\n        /* \"#utility.yul\":15029:15038   */\n      dup4\n        /* \"#utility.yul\":15025:15042   */\n      add\n        /* \"#utility.yul\":15018:15065   */\n      mstore\n        /* \"#utility.yul\":15082:15213   */\n      tag_295\n        /* \"#utility.yul\":15208:15212   */\n      dup2\n        /* \"#utility.yul\":15082:15213   */\n      tag_175\n      jump\t// in\n    tag_295:\n        /* \"#utility.yul\":15074:15213   */\n      swap1\n      pop\n        /* \"#utility.yul\":14801:15220   */\n      swap2\n      swap1\n      pop\n      jump\t// out\n\n    auxdata: 0xa2646970667358221220d73d70ea23cec4d97bd8dfeb069c1de86f8db4ba0d8c753a5fe7daff6750dc3264736f6c63430008180033\n}\n",
				"bytecode": {
					"linkReferences": {},
					"object": "608060405234801562000010575f80fd5b50604051620012df380380620012df833981810160405281019062000036919062000194565b335f806101000a81548173ffffffffffffffffffffffffffffffffffffffff021916908373ffffffffffffffffffffffffffffffffffffffff160217905550806002819055508160015f6101000a81548173ffffffffffffffffffffffffffffffffffffffff021916908373ffffffffffffffffffffffffffffffffffffffff1602179055505f6003819055505f60065f6101000a81548160ff02191690836003811115620000ea57620000e9620001d9565b5b0217905550505062000206565b5f80fd5b5f73ffffffffffffffffffffffffffffffffffffffff82169050919050565b5f6200012682620000fb565b9050919050565b62000138816200011a565b811462000143575f80fd5b50565b5f8151905062000156816200012d565b92915050565b5f819050919050565b62000170816200015c565b81146200017b575f80fd5b50565b5f815190506200018e8162000165565b92915050565b5f8060408385031215620001ad57620001ac620000f7565b5b5f620001bc8582860162000146565b9250506020620001cf858286016200017e565b9150509250929050565b7f4e487b71000000000000000000000000000000000000000000000000000000005f52602160045260245ffd5b6110cb80620002145f395ff3fe6080604052600436106100a6575f3560e01c806369d895751161006357806369d895751461019057806385209ee0146101a6578063b0304813146101d0578063d0e30db0146101fa578063eeafe9da14610204578063ff50abdc14610240576100a6565b806312065fe0146100aa5780631e0018d6146100d457806339a4e2d2146100fe5780633ed0cd2114610128578063590e1ae314610150578063699450e814610166575b5f80fd5b3480156100b5575f80fd5b506100be61026a565b6040516100cb91906109cc565b60405180910390f35b3480156100df575f80fd5b506100e8610271565b6040516100f59190610a24565b60405180910390f35b348015610109575f80fd5b50610112610294565b60405161011f91906109cc565b60405180910390f35b348015610133575f80fd5b5061014e60048036038101906101499190610a6b565b61029a565b005b34801561015b575f80fd5b506101646103fa565b005b348015610171575f80fd5b5061017a610590565b6040516101879190610ac9565b60405180910390f35b34801561019b575f80fd5b506101a46105b5565b005b3480156101b1575f80fd5b506101ba61080b565b6040516101c79190610b55565b60405180910390f35b3480156101db575f80fd5b506101e461081d565b6040516101f191906109cc565b60405180910390f35b610202610823565b005b34801561020f575f80fd5b5061022a60048036038101906102259190610b6e565b610999565b60405161023791906109cc565b60405180910390f35b34801561024b575f80fd5b506102546109ae565b60405161026191906109cc565b60405180910390f35b5f47905090565b5f8054906101000a900473ffffffffffffffffffffffffffffffffffffffff1681565b60025481565b5f8054906101000a900473ffffffffffffffffffffffffffffffffffffffff1673ffffffffffffffffffffffffffffffffffffffff163373ffffffffffffffffffffffffffffffffffffffff1614610327576040517f08c379a000000000000000000000000000000000000000000000000000000000815260040161031e90610bf3565b60405180910390fd5b6001600381111561033b5761033a610ae2565b5b60065f9054906101000a900460ff16600381111561035c5761035b610ae2565b5b1461039c576040517f08c379a000000000000000000000000000000000000000000000000000000000815260040161039390610c5b565b60405180910390fd5b60025482106103e0576040517f08c379a00000000000000000000000000000000000000000000000000000000081526004016103d790610cc3565b60405180910390fd5b8060045f8481526020019081526020015f20819055505050565b5f8054906101000a900473ffffffffffffffffffffffffffffffffffffffff1673ffffffffffffffffffffffffffffffffffffffff163373ffffffffffffffffffffffffffffffffffffffff1614610487576040517f08c379a000000000000000000000000000000000000000000000000000000000815260040161047e90610d2b565b60405180910390fd5b6001600381111561049b5761049a610ae2565b5b60065f9054906101000a900460ff1660038111156104bc576104bb610ae2565b5b146104fc576040517f08c379a00000000000000000000000000000000000000000000000000000000081526004016104f390610d93565b60405180910390fd5b5f4790505f8054906101000a900473ffffffffffffffffffffffffffffffffffffffff1673ffffffffffffffffffffffffffffffffffffffff166108fc8290811502906040515f60405180830381858888f19350505050158015610562573d5f803e3d5ffd5b50600360065f6101000a81548160ff0219169083600381111561058857610587610ae2565b5b021790555050565b60015f9054906101000a900473ffffffffffffffffffffffffffffffffffffffff1681565b5f8054906101000a900473ffffffffffffffffffffffffffffffffffffffff1673ffffffffffffffffffffffffffffffffffffffff163373ffffffffffffffffffffffffffffffffffffffff1614610642576040517f08c379a000000000000000000000000000000000000000000000000000000000815260040161063990610dfb565b60405180910390fd5b6001600381111561065657610655610ae2565b5b60065f9054906101000a900460ff16600381111561067757610676610ae2565b5b146106b7576040517f08c379a00000000000000000000000000000000000000000000000000000000081526004016106ae90610d93565b60405180910390fd5b600254600354106106fd576040517f08c379a00000000000000000000000000000000000000000000000000000000081526004016106f490610e63565b60405180910390fd5b5f60045f60035481526020019081526020015f205490505f8111610756576040517f08c379a000000000000000000000000000000000000000000000000000000000815260040161074d90610ecb565b60405180910390fd5b60015f9054906101000a900473ffffffffffffffffffffffffffffffffffffffff1673ffffffffffffffffffffffffffffffffffffffff166108fc8290811502906040515f60405180830381858888f193505050501580156107ba573d5f803e3d5ffd5b5060035f8154809291906107cd90610f16565b91905055506002546003540361080857600260065f6101000a81548160ff0219169083600381111561080257610801610ae2565b5b02179055505b50565b60065f9054906101000a900460ff1681565b60035481565b5f8054906101000a900473ffffffffffffffffffffffffffffffffffffffff1673ffffffffffffffffffffffffffffffffffffffff163373ffffffffffffffffffffffffffffffffffffffff16146108b0576040517f08c379a00000000000000000000000000000000000000000000000000000000081526004016108a790610fa7565b60405180910390fd5b5f60038111156108c3576108c2610ae2565b5b60065f9054906101000a900460ff1660038111156108e4576108e3610ae2565b5b14610924576040517f08c379a000000000000000000000000000000000000000000000000000000000815260040161091b9061100f565b60405180910390fd5b5f3411610966576040517f08c379a000000000000000000000000000000000000000000000000000000000815260040161095d90611077565b60405180910390fd5b34600581905550600160065f6101000a81548160ff0219169083600381111561099257610991610ae2565b5b0217905550565b6004602052805f5260405f205f915090505481565b60055481565b5f819050919050565b6109c6816109b4565b82525050565b5f6020820190506109df5f8301846109bd565b92915050565b5f73ffffffffffffffffffffffffffffffffffffffff82169050919050565b5f610a0e826109e5565b9050919050565b610a1e81610a04565b82525050565b5f602082019050610a375f830184610a15565b92915050565b5f80fd5b610a4a816109b4565b8114610a54575f80fd5b50565b5f81359050610a6581610a41565b92915050565b5f8060408385031215610a8157610a80610a3d565b5b5f610a8e85828601610a57565b9250506020610a9f85828601610a57565b9150509250929050565b5f610ab3826109e5565b9050919050565b610ac381610aa9565b82525050565b5f602082019050610adc5f830184610aba565b92915050565b7f4e487b71000000000000000000000000000000000000000000000000000000005f52602160045260245ffd5b60048110610b2057610b1f610ae2565b5b50565b5f819050610b3082610b0f565b919050565b5f610b3f82610b23565b9050919050565b610b4f81610b35565b82525050565b5f602082019050610b685f830184610b46565b92915050565b5f60208284031215610b8357610b82610a3d565b5b5f610b9084828501610a57565b91505092915050565b5f82825260208201905092915050565b7f4f6e6c7920696e766573746f722063616e20736574206d696c6573746f6e65735f82015250565b5f610bdd602083610b99565b9150610be882610ba9565b602082019050919050565b5f6020820190508181035f830152610c0a81610bd1565b9050919050565b7f4e6f742066756e646564207965740000000000000000000000000000000000005f82015250565b5f610c45600e83610b99565b9150610c5082610c11565b602082019050919050565b5f6020820190508181035f830152610c7281610c39565b9050919050565b7f496e76616c6964206d696c6573746f6e650000000000000000000000000000005f82015250565b5f610cad601183610b99565b9150610cb882610c79565b602082019050919050565b5f6020820190508181035f830152610cda81610ca1565b9050919050565b7f4f6e6c7920696e766573746f722063616e20726566756e6400000000000000005f82015250565b5f610d15601883610b99565b9150610d2082610ce1565b602082019050919050565b5f6020820190508181035f830152610d4281610d09565b9050919050565b7f4e6f742066756e646564000000000000000000000000000000000000000000005f82015250565b5f610d7d600a83610b99565b9150610d8882610d49565b602082019050919050565b5f6020820190508181035f830152610daa81610d71565b9050919050565b7f4f6e6c7920696e766573746f722063616e2072656c65617365000000000000005f82015250565b5f610de5601983610b99565b9150610df082610db1565b602082019050919050565b5f6020820190508181035f830152610e1281610dd9565b9050919050565b7f416c6c206d696c6573746f6e657320646f6e65000000000000000000000000005f82015250565b5f610e4d601383610b99565b9150610e5882610e19565b602082019050919050565b5f6020820190508181035f830152610e7a81610e41565b9050919050565b7f4d696c6573746f6e6520616d6f756e74206e6f742073657400000000000000005f82015250565b5f610eb5601883610b99565b9150610ec082610e81565b602082019050919050565b5f6020820190508181035f830152610ee281610ea9565b9050919050565b7f4e487b71000000000000000000000000000000000000000000000000000000005f52601160045260245ffd5b5f610f20826109b4565b91507fffffffffffffffffffffffffffffffffffffffffffffffffffffffffffffffff8203610f5257610f51610ee9565b5b600182019050919050565b7f4f6e6c7920696e766573746f722063616e206465706f736974000000000000005f82015250565b5f610f91601983610b99565b9150610f9c82610f5d565b602082019050919050565b5f6020820190508181035f830152610fbe81610f85565b9050919050565b7f416c72656164792066756e6465640000000000000000000000000000000000005f82015250565b5f610ff9600e83610b99565b915061100482610fc5565b602082019050919050565b5f6020820190508181035f83015261102681610fed565b9050919050565b7f4d7573742073656e6420736f6d652045544800000000000000000000000000005f82015250565b5f611061601283610b99565b915061106c8261102d565b602082019050919050565b5f6020820190508181035f83015261108e81611055565b905091905056fea2646970667358221220d73d70ea23cec4d97bd8dfeb069c1de86f8db4ba0d8c753a5fe7daff6750dc3264736f6c63430008180033",
					"opcodes": "PUSH1 0x80 PUSH1 0x40 MSTORE CALLVALUE DUP1 ISZERO PUSH3 0x10 JUMPI PUSH0 DUP1 REVERT JUMPDEST POP PUSH1 0x40 MLOAD PUSH3 0x12DF CODESIZE SUB DUP1 PUSH3 0x12DF DUP4 CODECOPY DUP2 DUP2 ADD PUSH1 0x40 MSTORE DUP2 ADD SWAP1 PUSH3 0x36 SWAP2 SWAP1 PUSH3 0x194 JUMP JUMPDEST CALLER PUSH0 DUP1 PUSH2 0x100 EXP DUP2 SLOAD DUP2 PUSH20 0xFFFFFFFFFFFFFFFFFFFFFFFFFFFFFFFFFFFFFFFF MUL NOT AND SWAP1 DUP4 PUSH20 0xFFFFFFFFFFFFFFFFFFFFFFFFFFFFFFFFFFFFFFFF AND MUL OR SWAP1 SSTORE POP DUP1 PUSH1 0x2 DUP2 SWAP1 SSTORE POP DUP2 PUSH1 0x1 PUSH0 PUSH2 0x100 EXP DUP2 SLOAD DUP2 PUSH20 0xFFFFFFFFFFFFFFFFFFFFFFFFFFFFFFFFFFFFFFFF MUL NOT AND SWAP1 DUP4 PUSH20 0xFFFFFFFFFFFFFFFFFFFFFFFFFFFFFFFFFFFFFFFF AND MUL OR SWAP1 SSTORE POP PUSH0 PUSH1 0x3 DUP2 SWAP1 SSTORE POP PUSH0 PUSH1 0x6 PUSH0 PUSH2 0x100 EXP DUP2 SLOAD DUP2 PUSH1 0xFF MUL NOT AND SWAP1 DUP4 PUSH1 0x3 DUP2 GT ISZERO PUSH3 0xEA JUMPI PUSH3 0xE9 PUSH3 0x1D9 JUMP JUMPDEST JUMPDEST MUL OR SWAP1 SSTORE POP POP POP PUSH3 0x206 JUMP JUMPDEST PUSH0 DUP1 REVERT JUMPDEST PUSH0 PUSH20 0xFFFFFFFFFFFFFFFFFFFFFFFFFFFFFFFFFFFFFFFF DUP3 AND SWAP1 POP SWAP2 SWAP1 POP JUMP JUMPDEST PUSH0 PUSH3 0x126 DUP3 PUSH3 0xFB JUMP JUMPDEST SWAP1 POP SWAP2 SWAP1 POP JUMP JUMPDEST PUSH3 0x138 DUP2 PUSH3 0x11A JUMP JUMPDEST DUP2 EQ PUSH3 0x143 JUMPI PUSH0 DUP1 REVERT JUMPDEST POP JUMP JUMPDEST PUSH0 DUP2 MLOAD SWAP1 POP PUSH3 0x156 DUP2 PUSH3 0x12D JUMP JUMPDEST SWAP3 SWAP2 POP POP JUMP JUMPDEST PUSH0 DUP2 SWAP1 POP SWAP2 SWAP1 POP JUMP JUMPDEST PUSH3 0x170 DUP2 PUSH3 0x15C JUMP JUMPDEST DUP2 EQ PUSH3 0x17B JUMPI PUSH0 DUP1 REVERT JUMPDEST POP JUMP JUMPDEST PUSH0 DUP2 MLOAD SWAP1 POP PUSH3 0x18E DUP2 PUSH3 0x165 JUMP JUMPDEST SWAP3 SWAP2 POP POP JUMP JUMPDEST PUSH0 DUP1 PUSH1 0x40 DUP4 DUP6 SUB SLT ISZERO PUSH3 0x1AD JUMPI PUSH3 0x1AC PUSH3 0xF7 JUMP JUMPDEST JUMPDEST PUSH0 PUSH3 0x1BC DUP6 DUP3 DUP7 ADD PUSH3 0x146 JUMP JUMPDEST SWAP3 POP POP PUSH1 0x20 PUSH3 0x1CF DUP6 DUP3 DUP7 ADD PUSH3 0x17E JUMP JUMPDEST SWAP2 POP POP SWAP3 POP SWAP3 SWAP1 POP JUMP JUMPDEST PUSH32 0x4E487B7100000000000000000000000000000000000000000000000000000000 PUSH0 MSTORE PUSH1 0x21 PUSH1 0x4 MSTORE PUSH1 0x24 PUSH0 REVERT JUMPDEST PUSH2 0x10CB DUP1 PUSH3 0x214 PUSH0 CODECOPY PUSH0 RETURN INVALID PUSH1 0x80 PUSH1 0x40 MSTORE PUSH1 0x4 CALLDATASIZE LT PUSH2 0xA6 JUMPI PUSH0 CALLDATALOAD PUSH1 0xE0 SHR DUP1 PUSH4 0x69D89575 GT PUSH2 0x63 JUMPI DUP1 PUSH4 0x69D89575 EQ PUSH2 0x190 JUMPI DUP1 PUSH4 0x85209EE0 EQ PUSH2 0x1A6 JUMPI DUP1 PUSH4 0xB0304813 EQ PUSH2 0x1D0 JUMPI DUP1 PUSH4 0xD0E30DB0 EQ PUSH2 0x1FA JUMPI DUP1 PUSH4 0xEEAFE9DA EQ PUSH2 0x204 JUMPI DUP1 PUSH4 0xFF50ABDC EQ PUSH2 0x240 JUMPI PUSH2 0xA6 JUMP JUMPDEST DUP1 PUSH4 0x12065FE0 EQ PUSH2 0xAA JUMPI DUP1 PUSH4 0x1E0018D6 EQ PUSH2 0xD4 JUMPI DUP1 PUSH4 0x39A4E2D2 EQ PUSH2 0xFE JUMPI DUP1 PUSH4 0x3ED0CD21 EQ PUSH2 0x128 JUMPI DUP1 PUSH4 0x590E1AE3 EQ PUSH2 0x150 JUMPI DUP1 PUSH4 0x699450E8 EQ PUSH2 0x166 JUMPI JUMPDEST PUSH0 DUP1 REVERT JUMPDEST CALLVALUE DUP1 ISZERO PUSH2 0xB5 JUMPI PUSH0 DUP1 REVERT JUMPDEST POP PUSH2 0xBE PUSH2 0x26A JUMP JUMPDEST PUSH1 0x40 MLOAD PUSH2 0xCB SWAP2 SWAP1 PUSH2 0x9CC JUMP JUMPDEST PUSH1 0x40 MLOAD DUP1 SWAP2 SUB SWAP1 RETURN JUMPDEST CALLVALUE DUP1 ISZERO PUSH2 0xDF JUMPI PUSH0 DUP1 REVERT JUMPDEST POP PUSH2 0xE8 PUSH2 0x271 JUMP JUMPDEST PUSH1 0x40 MLOAD PUSH2 0xF5 SWAP2 SWAP1 PUSH2 0xA24 JUMP JUMPDEST PUSH1 0x40 MLOAD DUP1 SWAP2 SUB SWAP1 RETURN JUMPDEST CALLVALUE DUP1 ISZERO PUSH2 0x109 JUMPI PUSH0 DUP1 REVERT JUMPDEST POP PUSH2 0x112 PUSH2 0x294 JUMP JUMPDEST PUSH1 0x40 MLOAD PUSH2 0x11F SWAP2 SWAP1 PUSH2 0x9CC JUMP JUMPDEST PUSH1 0x40 MLOAD DUP1 SWAP2 SUB SWAP1 RETURN JUMPDEST CALLVALUE DUP1 ISZERO PUSH2 0x133 JUMPI PUSH0 DUP1 REVERT JUMPDEST POP PUSH2 0x14E PUSH1 0x4 DUP1 CALLDATASIZE SUB DUP2 ADD SWAP1 PUSH2 0x149 SWAP2 SWAP1 PUSH2 0xA6B JUMP JUMPDEST PUSH2 0x29A JUMP JUMPDEST STOP JUMPDEST CALLVALUE DUP1 ISZERO PUSH2 0x15B JUMPI PUSH0 DUP1 REVERT JUMPDEST POP PUSH2 0x164 PUSH2 0x3FA JUMP JUMPDEST STOP JUMPDEST CALLVALUE DUP1 ISZERO PUSH2 0x171 JUMPI PUSH0 DUP1 REVERT JUMPDEST POP PUSH2 0x17A PUSH2 0x590 JUMP JUMPDEST PUSH1 0x40 MLOAD PUSH2 0x187 SWAP2 SWAP1 PUSH2 0xAC9 JUMP JUMPDEST PUSH1 0x40 MLOAD DUP1 SWAP2 SUB SWAP1 RETURN JUMPDEST CALLVALUE DUP1 ISZERO PUSH2 0x19B JUMPI PUSH0 DUP1 REVERT JUMPDEST POP PUSH2 0x1A4 PUSH2 0x5B5 JUMP JUMPDEST STOP JUMPDEST CALLVALUE DUP1 ISZERO PUSH2 0x1B1 JUMPI PUSH0 DUP1 REVERT JUMPDEST POP PUSH2 0x1BA PUSH2 0x80B JUMP JUMPDEST PUSH1 0x40 MLOAD PUSH2 0x1C7 SWAP2 SWAP1 PUSH2 0xB55 JUMP JUMPDEST PUSH1 0x40 MLOAD DUP1 SWAP2 SUB SWAP1 RETURN JUMPDEST CALLVALUE DUP1 ISZERO PUSH2 0x1DB JUMPI PUSH0 DUP1 REVERT JUMPDEST POP PUSH2 0x1E4 PUSH2 0x81D JUMP JUMPDEST PUSH1 0x40 MLOAD PUSH2 0x1F1 SWAP2 SWAP1 PUSH2 0x9CC JUMP JUMPDEST PUSH1 0x40 MLOAD DUP1 SWAP2 SUB SWAP1 RETURN JUMPDEST PUSH2 0x202 PUSH2 0x823 JUMP JUMPDEST STOP JUMPDEST CALLVALUE DUP1 ISZERO PUSH2 0x20F JUMPI PUSH0 DUP1 REVERT JUMPDEST POP PUSH2 0x22A PUSH1 0x4 DUP1 CALLDATASIZE SUB DUP2 ADD SWAP1 PUSH2 0x225 SWAP2 SWAP1 PUSH2 0xB6E JUMP JUMPDEST PUSH2 0x999 JUMP JUMPDEST PUSH1 0x40 MLOAD PUSH2 0x237 SWAP2 SWAP1 PUSH2 0x9CC JUMP JUMPDEST PUSH1 0x40 MLOAD DUP1 SWAP2 SUB SWAP1 RETURN JUMPDEST CALLVALUE DUP1 ISZERO PUSH2 0x24B JUMPI PUSH0 DUP1 REVERT JUMPDEST POP PUSH2 0x254 PUSH2 0x9AE JUMP JUMPDEST PUSH1 0x40 MLOAD PUSH2 0x261 SWAP2 SWAP1 PUSH2 0x9CC JUMP JUMPDEST PUSH1 0x40 MLOAD DUP1 SWAP2 SUB SWAP1 RETURN JUMPDEST PUSH0 SELFBALANCE SWAP1 POP SWAP1 JUMP JUMPDEST PUSH0 DUP1 SLOAD SWAP1 PUSH2 0x100 EXP SWAP1 DIV PUSH20 0xFFFFFFFFFFFFFFFFFFFFFFFFFFFFFFFFFFFFFFFF AND DUP2 JUMP JUMPDEST PUSH1 0x2 SLOAD DUP2 JUMP JUMPDEST PUSH0 DUP1 SLOAD SWAP1 PUSH2 0x100 EXP SWAP1 DIV PUSH20 0xFFFFFFFFFFFFFFFFFFFFFFFFFFFFFFFFFFFFFFFF AND PUSH20 0xFFFFFFFFFFFFFFFFFFFFFFFFFFFFFFFFFFFFFFFF AND CALLER PUSH20 0xFFFFFFFFFFFFFFFFFFFFFFFFFFFFFFFFFFFFFFFF AND EQ PUSH2 0x327 JUMPI PUSH1 0x40 MLOAD PUSH32 0x8C379A000000000000000000000000000000000000000000000000000000000 DUP2 MSTORE PUSH1 0x4 ADD PUSH2 0x31E SWAP1 PUSH2 0xBF3 JUMP JUMPDEST PUSH1 0x40 MLOAD DUP1 SWAP2 SUB SWAP1 REVERT JUMPDEST PUSH1 0x1 PUSH1 0x3 DUP2 GT ISZERO PUSH2 0x33B JUMPI PUSH2 0x33A PUSH2 0xAE2 JUMP JUMPDEST JUMPDEST PUSH1 0x6 PUSH0 SWAP1 SLOAD SWAP1 PUSH2 0x100 EXP SWAP1 DIV PUSH1 0xFF AND PUSH1 0x3 DUP2 GT ISZERO PUSH2 0x35C JUMPI PUSH2 0x35B PUSH2 0xAE2 JUMP JUMPDEST JUMPDEST EQ PUSH2 0x39C JUMPI PUSH1 0x40 MLOAD PUSH32 0x8C379A000000000000000000000000000000000000000000000000000000000 DUP2 MSTORE PUSH1 0x4 ADD PUSH2 0x393 SWAP1 PUSH2 0xC5B JUMP JUMPDEST PUSH1 0x40 MLOAD DUP1 SWAP2 SUB SWAP1 REVERT JUMPDEST PUSH1 0x2 SLOAD DUP3 LT PUSH2 0x3E0 JUMPI PUSH1 0x40 MLOAD PUSH32 0x8C379A000000000000000000000000000000000000000000000000000000000 DUP2 MSTORE PUSH1 0x4 ADD PUSH2 0x3D7 SWAP1 PUSH2 0xCC3 JUMP JUMPDEST PUSH1 0x40 MLOAD DUP1 SWAP2 SUB SWAP1 REVERT JUMPDEST DUP1 PUSH1 0x4 PUSH0 DUP5 DUP2 MSTORE PUSH1 0x20 ADD SWAP1 DUP2 MSTORE PUSH1 0x20 ADD PUSH0 KECCAK256 DUP2 SWAP1 SSTORE POP POP POP JUMP JUMPDEST PUSH0 DUP1 SLOAD SWAP1 PUSH2 0x100 EXP SWAP1 DIV PUSH20 0xFFFFFFFFFFFFFFFFFFFFFFFFFFFFFFFFFFFFFFFF AND PUSH20 0xFFFFFFFFFFFFFFFFFFFFFFFFFFFFFFFFFFFFFFFF AND CALLER PUSH20 0xFFFFFFFFFFFFFFFFFFFFFFFFFFFFFFFFFFFFFFFF AND EQ PUSH2 0x487 JUMPI PUSH1 0x40 MLOAD PUSH32 0x8C379A000000000000000000000000000000000000000000000000000000000 DUP2 MSTORE PUSH1 0x4 ADD PUSH2 0x47E SWAP1 PUSH2 0xD2B JUMP JUMPDEST PUSH1 0x40 MLOAD DUP1 SWAP2 SUB SWAP1 REVERT JUMPDEST PUSH1 0x1 PUSH1 0x3 DUP2 GT ISZERO PUSH2 0x49B JUMPI PUSH2 0x49A PUSH2 0xAE2 JUMP JUMPDEST JUMPDEST PUSH1 0x6 PUSH0 SWAP1 SLOAD SWAP1 PUSH2 0x100 EXP SWAP1 DIV PUSH1 0xFF AND PUSH1 0x3 DUP2 GT ISZERO PUSH2 0x4BC JUMPI PUSH2 0x4BB PUSH2 0xAE2 JUMP JUMPDEST JUMPDEST EQ PUSH2 0x4FC JUMPI PUSH1 0x40 MLOAD PUSH32 0x8C379A000000000000000000000000000000000000000000000000000000000 DUP2 MSTORE PUSH1 0x4 ADD PUSH2 0x4F3 SWAP1 PUSH2 0xD93 JUMP JUMPDEST PUSH1 0x40 MLOAD DUP1 SWAP2 SUB SWAP1 REVERT JUMPDEST PUSH0 SELFBALANCE SWAP1 POP PUSH0 DUP1 SLOAD SWAP1 PUSH2 0x100 EXP SWAP1 DIV PUSH20 0xFFFFFFFFFFFFFFFFFFFFFFFFFFFFFFFFFFFFFFFF AND PUSH20 0xFFFFFFFFFFFFFFFFFFFFFFFFFFFFFFFFFFFFFFFF AND PUSH2 0x8FC DUP3 SWAP1 DUP2 ISZERO MUL SWAP1 PUSH1 0x40 MLOAD PUSH0 PUSH1 0x40 MLOAD DUP1 DUP4 SUB DUP2 DUP6 DUP9 DUP9 CALL SWAP4 POP POP POP POP ISZERO DUP1 ISZERO PUSH2 0x562 JUMPI RETURNDATASIZE PUSH0 DUP1 RETURNDATACOPY RETURNDATASIZE PUSH0 REVERT JUMPDEST POP PUSH1 0x3 PUSH1 0x6 PUSH0 PUSH2 0x100 EXP DUP2 SLOAD DUP2 PUSH1 0xFF MUL NOT AND SWAP1 DUP4 PUSH1 0x3 DUP2 GT ISZERO PUSH2 0x588 JUMPI PUSH2 0x587 PUSH2 0xAE2 JUMP JUMPDEST JUMPDEST MUL OR SWAP1 SSTORE POP POP JUMP JUMPDEST PUSH1 0x1 PUSH0 SWAP1 SLOAD SWAP1 PUSH2 0x100 EXP SWAP1 DIV PUSH20 0xFFFFFFFFFFFFFFFFFFFFFFFFFFFFFFFFFFFFFFFF AND DUP2 JUMP JUMPDEST PUSH0 DUP1 SLOAD SWAP1 PUSH2 0x100 EXP SWAP1 DIV PUSH20 0xFFFFFFFFFFFFFFFFFFFFFFFFFFFFFFFFFFFFFFFF AND PUSH20 0xFFFFFFFFFFFFFFFFFFFFFFFFFFFFFFFFFFFFFFFF AND CALLER PUSH20 0xFFFFFFFFFFFFFFFFFFFFFFFFFFFFFFFFFFFFFFFF AND EQ PUSH2 0x642 JUMPI PUSH1 0x40 MLOAD PUSH32 0x8C379A000000000000000000000000000000000000000000000000000000000 DUP2 MSTORE PUSH1 0x4 ADD PUSH2 0x639 SWAP1 PUSH2 0xDFB JUMP JUMPDEST PUSH1 0x40 MLOAD DUP1 SWAP2 SUB SWAP1 REVERT JUMPDEST PUSH1 0x1 PUSH1 0x3 DUP2 GT ISZERO PUSH2 0x656 JUMPI PUSH2 0x655 PUSH2 0xAE2 JUMP JUMPDEST JUMPDEST PUSH1 0x6 PUSH0 SWAP1 SLOAD SWAP1 PUSH2 0x100 EXP SWAP1 DIV PUSH1 0xFF AND PUSH1 0x3 DUP2 GT ISZERO PUSH2 0x677 JUMPI PUSH2 0x676 PUSH2 0xAE2 JUMP JUMPDEST JUMPDEST EQ PUSH2 0x6B7 JUMPI PUSH1 0x40 MLOAD PUSH32 0x8C379A000000000000000000000000000000000000000000000000000000000 DUP2 MSTORE PUSH1 0x4 ADD PUSH2 0x6AE SWAP1 PUSH2 0xD93 JUMP JUMPDEST PUSH1 0x40 MLOAD DUP1 SWAP2 SUB SWAP1 REVERT JUMPDEST PUSH1 0x2 SLOAD PUSH1 0x3 SLOAD LT PUSH2 0x6FD JUMPI PUSH1 0x40 MLOAD PUSH32 0x8C379A000000000000000000000000000000000000000000000000000000000 DUP2 MSTORE PUSH1 0x4 ADD PUSH2 0x6F4 SWAP1 PUSH2 0xE63 JUMP JUMPDEST PUSH1 0x40 MLOAD DUP1 SWAP2 SUB SWAP1 REVERT JUMPDEST PUSH0 PUSH1 0x4 PUSH0 PUSH1 0x3 SLOAD DUP2 MSTORE PUSH1 0x20 ADD SWAP1 DUP2 MSTORE PUSH1 0x20 ADD PUSH0 KECCAK256 SLOAD SWAP1 POP PUSH0 DUP2 GT PUSH2 0x756 JUMPI PUSH1 0x40 MLOAD PUSH32 0x8C379A000000000000000000000000000000000000000000000000000000000 DUP2 MSTORE PUSH1 0x4 ADD PUSH2 0x74D SWAP1 PUSH2 0xECB JUMP JUMPDEST PUSH1 0x40 MLOAD DUP1 SWAP2 SUB SWAP1 REVERT JUMPDEST PUSH1 0x1 PUSH0 SWAP1 SLOAD SWAP1 PUSH2 0x100 EXP SWAP1 DIV PUSH20 0xFFFFFFFFFFFFFFFFFFFFFFFFFFFFFFFFFFFFFFFF AND PUSH20 0xFFFFFFFFFFFFFFFFFFFFFFFFFFFFFFFFFFFFFFFF AND PUSH2 0x8FC DUP3 SWAP1 DUP2 ISZERO MUL SWAP1 PUSH1 0x40 MLOAD PUSH0 PUSH1 0x40 MLOAD DUP1 DUP4 SUB DUP2 DUP6 DUP9 DUP9 CALL SWAP4 POP POP POP POP ISZERO DUP1 ISZERO PUSH2 0x7BA JUMPI RETURNDATASIZE PUSH0 DUP1 RETURNDATACOPY RETURNDATASIZE PUSH0 REVERT JUMPDEST POP PUSH1 0x3 PUSH0 DUP2 SLOAD DUP1 SWAP3 SWAP2 SWAP1 PUSH2 0x7CD SWAP1 PUSH2 0xF16 JUMP JUMPDEST SWAP2 SWAP1 POP SSTORE POP PUSH1 0x2 SLOAD PUSH1 0x3 SLOAD SUB PUSH2 0x808 JUMPI PUSH1 0x2 PUSH1 0x6 PUSH0 PUSH2 0x100 EXP DUP2 SLOAD DUP2 PUSH1 0xFF MUL NOT AND SWAP1 DUP4 PUSH1 0x3 DUP2 GT ISZERO PUSH2 0x802 JUMPI PUSH2 0x801 PUSH2 0xAE2 JUMP JUMPDEST JUMPDEST MUL OR SWAP1 SSTORE POP JUMPDEST POP JUMP JUMPDEST PUSH1 0x6 PUSH0 SWAP1 SLOAD SWAP1 PUSH2 0x100 EXP SWAP1 DIV PUSH1 0xFF AND DUP2 JUMP JUMPDEST PUSH1 0x3 SLOAD DUP2 JUMP JUMPDEST PUSH0 DUP1 SLOAD SWAP1 PUSH2 0x100 EXP SWAP1 DIV PUSH20 0xFFFFFFFFFFFFFFFFFFFFFFFFFFFFFFFFFFFFFFFF AND PUSH20 0xFFFFFFFFFFFFFFFFFFFFFFFFFFFFFFFFFFFFFFFF AND CALLER PUSH20 0xFFFFFFFFFFFFFFFFFFFFFFFFFFFFFFFFFFFFFFFF AND EQ PUSH2 0x8B0 JUMPI PUSH1 0x40 MLOAD PUSH32 0x8C379A000000000000000000000000000000000000000000000000000000000 DUP2 MSTORE PUSH1 0x4 ADD PUSH2 0x8A7 SWAP1 PUSH2 0xFA7 JUMP JUMPDEST PUSH1 0x40 MLOAD DUP1 SWAP2 SUB SWAP1 REVERT JUMPDEST PUSH0 PUSH1 0x3 DUP2 GT ISZERO PUSH2 0x8C3 JUMPI PUSH2 0x8C2 PUSH2 0xAE2 JUMP JUMPDEST JUMPDEST PUSH1 0x6 PUSH0 SWAP1 SLOAD SWAP1 PUSH2 0x100 EXP SWAP1 DIV PUSH1 0xFF AND PUSH1 0x3 DUP2 GT ISZERO PUSH2 0x8E4 JUMPI PUSH2 0x8E3 PUSH2 0xAE2 JUMP JUMPDEST JUMPDEST EQ PUSH2 0x924 JUMPI PUSH1 0x40 MLOAD PUSH32 0x8C379A000000000000000000000000000000000000000000000000000000000 DUP2 MSTORE PUSH1 0x4 ADD PUSH2 0x91B SWAP1 PUSH2 0x100F JUMP JUMPDEST PUSH1 0x40 MLOAD DUP1 SWAP2 SUB SWAP1 REVERT JUMPDEST PUSH0 CALLVALUE GT PUSH2 0x966 JUMPI PUSH1 0x40 MLOAD PUSH32 0x8C379A000000000000000000000000000000000000000000000000000000000 DUP2 MSTORE PUSH1 0x4 ADD PUSH2 0x95D SWAP1 PUSH2 0x1077 JUMP JUMPDEST PUSH1 0x40 MLOAD DUP1 SWAP2 SUB SWAP1 REVERT JUMPDEST CALLVALUE PUSH1 0x5 DUP2 SWAP1 SSTORE POP PUSH1 0x1 PUSH1 0x6 PUSH0 PUSH2 0x100 EXP DUP2 SLOAD DUP2 PUSH1 0xFF MUL NOT AND SWAP1 DUP4 PUSH1 0x3 DUP2 GT ISZERO PUSH2 0x992 JUMPI PUSH2 0x991 PUSH2 0xAE2 JUMP JUMPDEST JUMPDEST MUL OR SWAP1 SSTORE POP JUMP JUMPDEST PUSH1 0x4 PUSH1 0x20 MSTORE DUP1 PUSH0 MSTORE PUSH1 0x40 PUSH0 KECCAK256 PUSH0 SWAP2 POP SWAP1 POP SLOAD DUP2 JUMP JUMPDEST PUSH1 0x5 SLOAD DUP2 JUMP JUMPDEST PUSH0 DUP2 SWAP1 POP SWAP2 SWAP1 POP JUMP JUMPDEST PUSH2 0x9C6 DUP2 PUSH2 0x9B4 JUMP JUMPDEST DUP3 MSTORE POP POP JUMP JUMPDEST PUSH0 PUSH1 0x20 DUP3 ADD SWAP1 POP PUSH2 0x9DF PUSH0 DUP4 ADD DUP5 PUSH2 0x9BD JUMP JUMPDEST SWAP3 SWAP2 POP POP JUMP JUMPDEST PUSH0 PUSH20 0xFFFFFFFFFFFFFFFFFFFFFFFFFFFFFFFFFFFFFFFF DUP3 AND SWAP1 POP SWAP2 SWAP1 POP JUMP JUMPDEST PUSH0 PUSH2 0xA0E DUP3 PUSH2 0x9E5 JUMP JUMPDEST SWAP1 POP SWAP2 SWAP1 POP JUMP JUMPDEST PUSH2 0xA1E DUP2 PUSH2 0xA04 JUMP JUMPDEST DUP3 MSTORE POP POP JUMP JUMPDEST PUSH0 PUSH1 0x20 DUP3 ADD SWAP1 POP PUSH2 0xA37 PUSH0 DUP4 ADD DUP5 PUSH2 0xA15 JUMP JUMPDEST SWAP3 SWAP2 POP POP JUMP JUMPDEST PUSH0 DUP1 REVERT JUMPDEST PUSH2 0xA4A DUP2 PUSH2 0x9B4 JUMP JUMPDEST DUP2 EQ PUSH2 0xA54 JUMPI PUSH0 DUP1 REVERT JUMPDEST POP JUMP JUMPDEST PUSH0 DUP2 CALLDATALOAD SWAP1 POP PUSH2 0xA65 DUP2 PUSH2 0xA41 JUMP JUMPDEST SWAP3 SWAP2 POP POP JUMP JUMPDEST PUSH0 DUP1 PUSH1 0x40 DUP4 DUP6 SUB SLT ISZERO PUSH2 0xA81 JUMPI PUSH2 0xA80 PUSH2 0xA3D JUMP JUMPDEST JUMPDEST PUSH0 PUSH2 0xA8E DUP6 DUP3 DUP7 ADD PUSH2 0xA57 JUMP JUMPDEST SWAP3 POP POP PUSH1 0x20 PUSH2 0xA9F DUP6 DUP3 DUP7 ADD PUSH2 0xA57 JUMP JUMPDEST SWAP2 POP POP SWAP3 POP SWAP3 SWAP1 POP JUMP JUMPDEST PUSH0 PUSH2 0xAB3 DUP3 PUSH2 0x9E5 JUMP JUMPDEST SWAP1 POP SWAP2 SWAP1 POP JUMP JUMPDEST PUSH2 0xAC3 DUP2 PUSH2 0xAA9 JUMP JUMPDEST DUP3 MSTORE POP POP JUMP JUMPDEST PUSH0 PUSH1 0x20 DUP3 ADD SWAP1 POP PUSH2 0xADC PUSH0 DUP4 ADD DUP5 PUSH2 0xABA JUMP JUMPDEST SWAP3 SWAP2 POP POP JUMP JUMPDEST PUSH32 0x4E487B7100000000000000000000000000000000000000000000000000000000 PUSH0 MSTORE PUSH1 0x21 PUSH1 0x4 MSTORE PUSH1 0x24 PUSH0 REVERT JUMPDEST PUSH1 0x4 DUP2 LT PUSH2 0xB20 JUMPI PUSH2 0xB1F PUSH2 0xAE2 JUMP JUMPDEST JUMPDEST POP JUMP JUMPDEST PUSH0 DUP2 SWAP1 POP PUSH2 0xB30 DUP3 PUSH2 0xB0F JUMP JUMPDEST SWAP2 SWAP1 POP JUMP JUMPDEST PUSH0 PUSH2 0xB3F DUP3 PUSH2 0xB23 JUMP JUMPDEST SWAP1 POP SWAP2 SWAP1 POP JUMP JUMPDEST PUSH2 0xB4F DUP2 PUSH2 0xB35 JUMP JUMPDEST DUP3 MSTORE POP POP JUMP JUMPDEST PUSH0 PUSH1 0x20 DUP3 ADD SWAP1 POP PUSH2 0xB68 PUSH0 DUP4 ADD DUP5 PUSH2 0xB46 JUMP JUMPDEST SWAP3 SWAP2 POP POP JUMP JUMPDEST PUSH0 PUSH1 0x20 DUP3 DUP5 SUB SLT ISZERO PUSH2 0xB83 JUMPI PUSH2 0xB82 PUSH2 0xA3D JUMP JUMPDEST JUMPDEST PUSH0 PUSH2 0xB90 DUP5 DUP3 DUP6 ADD PUSH2 0xA57 JUMP JUMPDEST SWAP2 POP POP SWAP3 SWAP2 POP POP JUMP JUMPDEST PUSH0 DUP3 DUP3 MSTORE PUSH1 0x20 DUP3 ADD SWAP1 POP SWAP3 SWAP2 POP POP JUMP JUMPDEST PUSH32 0x4F6E6C7920696E766573746F722063616E20736574206D696C6573746F6E6573 PUSH0 DUP3 ADD MSTORE POP JUMP JUMPDEST PUSH0 PUSH2 0xBDD PUSH1 0x20 DUP4 PUSH2 0xB99 JUMP JUMPDEST SWAP2 POP PUSH2 0xBE8 DUP3 PUSH2 0xBA9 JUMP JUMPDEST PUSH1 0x20 DUP3 ADD SWAP1 POP SWAP2 SWAP1 POP JUMP JUMPDEST PUSH0 PUSH1 0x20 DUP3 ADD SWAP1 POP DUP2 DUP2 SUB PUSH0 DUP4 ADD MSTORE PUSH2 0xC0A DUP2 PUSH2 0xBD1 JUMP JUMPDEST SWAP1 POP SWAP2 SWAP1 POP JUMP JUMPDEST PUSH32 0x4E6F742066756E64656420796574000000000000000000000000000000000000 PUSH0 DUP3 ADD MSTORE POP JUMP JUMPDEST PUSH0 PUSH2 0xC45 PUSH1 0xE DUP4 PUSH2 0xB99 JUMP JUMPDEST SWAP2 POP PUSH2 0xC50 DUP3 PUSH2 0xC11 JUMP JUMPDEST PUSH1 0x20 DUP3 ADD SWAP1 POP SWAP2 SWAP1 POP JUMP JUMPDEST PUSH0 PUSH1 0x20 DUP3 ADD SWAP1 POP DUP2 DUP2 SUB PUSH0 DUP4 ADD MSTORE PUSH2 0xC72 DUP2 PUSH2 0xC39 JUMP JUMPDEST SWAP1 POP SWAP2 SWAP1 POP JUMP JUMPDEST PUSH32 0x496E76616C6964206D696C6573746F6E65000000000000000000000000000000 PUSH0 DUP3 ADD MSTORE POP JUMP JUMPDEST PUSH0 PUSH2 0xCAD PUSH1 0x11 DUP4 PUSH2 0xB99 JUMP JUMPDEST SWAP2 POP PUSH2 0xCB8 DUP3 PUSH2 0xC79 JUMP JUMPDEST PUSH1 0x20 DUP3 ADD SWAP1 POP SWAP2 SWAP1 POP JUMP JUMPDEST PUSH0 PUSH1 0x20 DUP3 ADD SWAP1 POP DUP2 DUP2 SUB PUSH0 DUP4 ADD MSTORE PUSH2 0xCDA DUP2 PUSH2 0xCA1 JUMP JUMPDEST SWAP1 POP SWAP2 SWAP1 POP JUMP JUMPDEST PUSH32 0x4F6E6C7920696E766573746F722063616E20726566756E640000000000000000 PUSH0 DUP3 ADD MSTORE POP JUMP JUMPDEST PUSH0 PUSH2 0xD15 PUSH1 0x18 DUP4 PUSH2 0xB99 JUMP JUMPDEST SWAP2 POP PUSH2 0xD20 DUP3 PUSH2 0xCE1 JUMP JUMPDEST PUSH1 0x20 DUP3 ADD SWAP1 POP SWAP2 SWAP1 POP JUMP JUMPDEST PUSH0 PUSH1 0x20 DUP3 ADD SWAP1 POP DUP2 DUP2 SUB PUSH0 DUP4 ADD MSTORE PUSH2 0xD42 DUP2 PUSH2 0xD09 JUMP JUMPDEST SWAP1 POP SWAP2 SWAP1 POP JUMP JUMPDEST PUSH32 0x4E6F742066756E64656400000000000000000000000000000000000000000000 PUSH0 DUP3 ADD MSTORE POP JUMP JUMPDEST PUSH0 PUSH2 0xD7D PUSH1 0xA DUP4 PUSH2 0xB99 JUMP JUMPDEST SWAP2 POP PUSH2 0xD88 DUP3 PUSH2 0xD49 JUMP JUMPDEST PUSH1 0x20 DUP3 ADD SWAP1 POP SWAP2 SWAP1 POP JUMP JUMPDEST PUSH0 PUSH1 0x20 DUP3 ADD SWAP1 POP DUP2 DUP2 SUB PUSH0 DUP4 ADD MSTORE PUSH2 0xDAA DUP2 PUSH2 0xD71 JUMP JUMPDEST SWAP1 POP SWAP2 SWAP1 POP JUMP JUMPDEST PUSH32 0x4F6E6C7920696E766573746F722063616E2072656C6561736500000000000000 PUSH0 DUP3 ADD MSTORE POP JUMP JUMPDEST PUSH0 PUSH2 0xDE5 PUSH1 0x19 DUP4 PUSH2 0xB99 JUMP JUMPDEST SWAP2 POP PUSH2 0xDF0 DUP3 PUSH2 0xDB1 JUMP JUMPDEST PUSH1 0x20 DUP3 ADD SWAP1 POP SWAP2 SWAP1 POP JUMP JUMPDEST PUSH0 PUSH1 0x20 DUP3 ADD SWAP1 POP DUP2 DUP2 SUB PUSH0 DUP4 ADD MSTORE PUSH2 0xE12 DUP2 PUSH2 0xDD9 JUMP JUMPDEST SWAP1 POP SWAP2 SWAP1 POP JUMP JUMPDEST PUSH32 0x416C6C206D696C6573746F6E657320646F6E6500000000000000000000000000 PUSH0 DUP3 ADD MSTORE POP JUMP JUMPDEST PUSH0 PUSH2 0xE4D PUSH1 0x13 DUP4 PUSH2 0xB99 JUMP JUMPDEST SWAP2 POP PUSH2 0xE58 DUP3 PUSH2 0xE19 JUMP JUMPDEST PUSH1 0x20 DUP3 ADD SWAP1 POP SWAP2 SWAP1 POP JUMP JUMPDEST PUSH0 PUSH1 0x20 DUP3 ADD SWAP1 POP DUP2 DUP2 SUB PUSH0 DUP4 ADD MSTORE PUSH2 0xE7A DUP2 PUSH2 0xE41 JUMP JUMPDEST SWAP1 POP SWAP2 SWAP1 POP JUMP JUMPDEST PUSH32 0x4D696C6573746F6E6520616D6F756E74206E6F74207365740000000000000000 PUSH0 DUP3 ADD MSTORE POP JUMP JUMPDEST PUSH0 PUSH2 0xEB5 PUSH1 0x18 DUP4 PUSH2 0xB99 JUMP JUMPDEST SWAP2 POP PUSH2 0xEC0 DUP3 PUSH2 0xE81 JUMP JUMPDEST PUSH1 0x20 DUP3 ADD SWAP1 POP SWAP2 SWAP1 POP JUMP JUMPDEST PUSH0 PUSH1 0x20 DUP3 ADD SWAP1 POP DUP2 DUP2 SUB PUSH0 DUP4 ADD MSTORE PUSH2 0xEE2 DUP2 PUSH2 0xEA9 JUMP JUMPDEST SWAP1 POP SWAP2 SWAP1 POP JUMP JUMPDEST PUSH32 0x4E487B7100000000000000000000000000000000000000000000000000000000 PUSH0 MSTORE PUSH1 0x11 PUSH1 0x4 MSTORE PUSH1 0x24 PUSH0 REVERT JUMPDEST PUSH0 PUSH2 0xF20 DUP3 PUSH2 0x9B4 JUMP JUMPDEST SWAP2 POP PUSH32 0xFFFFFFFFFFFFFFFFFFFFFFFFFFFFFFFFFFFFFFFFFFFFFFFFFFFFFFFFFFFFFFFF DUP3 SUB PUSH2 0xF52 JUMPI PUSH2 0xF51 PUSH2 0xEE9 JUMP JUMPDEST JUMPDEST PUSH1 0x1 DUP3 ADD SWAP1 POP SWAP2 SWAP1 POP JUMP JUMPDEST PUSH32 0x4F6E6C7920696E766573746F722063616E206465706F73697400000000000000 PUSH0 DUP3 ADD MSTORE POP JUMP JUMPDEST PUSH0 PUSH2 0xF91 PUSH1 0x19 DUP4 PUSH2 0xB99 JUMP JUMPDEST SWAP2 POP PUSH2 0xF9C DUP3 PUSH2 0xF5D JUMP JUMPDEST PUSH1 0x20 DUP3 ADD SWAP1 POP SWAP2 SWAP1 POP JUMP JUMPDEST PUSH0 PUSH1 0x20 DUP3 ADD SWAP1 POP DUP2 DUP2 SUB PUSH0 DUP4 ADD MSTORE PUSH2 0xFBE DUP2 PUSH2 0xF85 JUMP JUMPDEST SWAP1 POP SWAP2 SWAP1 POP JUMP JUMPDEST PUSH32 0x416C72656164792066756E646564000000000000000000000000000000000000 PUSH0 DUP3 ADD MSTORE POP JUMP JUMPDEST PUSH0 PUSH2 0xFF9 PUSH1 0xE DUP4 PUSH2 0xB99 JUMP JUMPDEST SWAP2 POP PUSH2 0x1004 DUP3 PUSH2 0xFC5 JUMP JUMPDEST PUSH1 0x20 DUP3 ADD SWAP1 POP SWAP2 SWAP1 POP JUMP JUMPDEST PUSH0 PUSH1 0x20 DUP3 ADD SWAP1 POP DUP2 DUP2 SUB PUSH0 DUP4 ADD MSTORE PUSH2 0x1026 DUP2 PUSH2 0xFED JUMP JUMPDEST SWAP1 POP SWAP2 SWAP1 POP JUMP JUMPDEST PUSH32 0x4D7573742073656E6420736F6D65204554480000000000000000000000000000 PUSH0 DUP3 ADD MSTORE POP JUMP JUMPDEST PUSH0 PUSH2 0x1061 PUSH1 0x12 DUP4 PUSH2 0xB99 JUMP JUMPDEST SWAP2 POP PUSH2 0x106C DUP3 PUSH2 0x102D JUMP JUMPDEST PUSH1 0x20 DUP3 ADD SWAP1 POP SWAP2 SWAP1 POP JUMP JUMPDEST PUSH0 PUSH1 0x20 DUP3 ADD SWAP1 POP DUP2 DUP2 SUB PUSH0 DUP4 ADD MSTORE PUSH2 0x108E DUP2 PUSH2 0x1055 JUMP JUMPDEST SWAP1 POP SWAP2 SWAP1 POP JUMP INVALID LOG2 PUSH5 0x6970667358 0x22 SLT KECCAK256 0xD7 RETURNDATASIZE PUSH17 0xEA23CEC4D97BD8DFEB069C1DE86F8DB4BA 0xD DUP13 PUSH22 0x3A5FE7DAFF6750DC3264736F6C634300081800330000 "
				},
				"gasEstimates": {
					"creation": {
						"codeDepositCost": "859800",
						"executionCost": "infinite",
						"totalCost": "infinite"
					},
					"external": {
						"contractState()": "2576",
						"currentMilestone()": "2469",
						"deposit()": "50980",
						"getBalance()": "335",
						"investor()": "2528",
						"milestoneAmounts(uint256)": "infinite",
						"refund()": "infinite",
						"releaseFunds()": "infinite",
						"setMilestone(uint256,uint256)": "infinite",
						"student()": "2619",
						"totalDeposited()": "2535",
						"totalMilestones()": "2470"
					}
				},
				"methodIdentifiers": {
					"contractState()": "85209ee0",
					"currentMilestone()": "b0304813",
					"deposit()": "d0e30db0",
					"getBalance()": "12065fe0",
					"investor()": "1e0018d6",
					"milestoneAmounts(uint256)": "eeafe9da",
					"refund()": "590e1ae3",
					"releaseFunds()": "69d89575",
					"setMilestone(uint256,uint256)": "3ed0cd21",
					"student()": "699450e8",
					"totalDeposited()": "ff50abdc",
					"totalMilestones()": "39a4e2d2"
				}
			},
			"storageLayout": {
				"storage": [
					{
						"astId": 3,
						"contract": "samosa/project. sol:MilestoneEscrow",
						"label": "investor",
						"offset": 0,
						"slot": "0",
						"type": "t_address"
					},
					{
						"astId": 5,
						"contract": "samosa/project. sol:MilestoneEscrow",
						"label": "student",
						"offset": 0,
						"slot": "1",
						"type": "t_address_payable"
					},
					{
						"astId": 7,
						"contract": "samosa/project. sol:MilestoneEscrow",
						"label": "totalMilestones",
						"offset": 0,
						"slot": "2",
						"type": "t_uint256"
					},
					{
						"astId": 9,
						"contract": "samosa/project. sol:MilestoneEscrow",
						"label": "currentMilestone",
						"offset": 0,
						"slot": "3",
						"type": "t_uint256"
					},
					{
						"astId": 13,
						"contract": "samosa/project. sol:MilestoneEscrow",
						"label": "milestoneAmounts",
						"offset": 0,
						"slot": "4",
						"type": "t_mapping(t_uint256,t_uint256)"
					},
					{
						"astId": 15,
						"contract": "samosa/project. sol:MilestoneEscrow",
						"label": "totalDeposited",
						"offset": 0,
						"slot": "5",
						"type": "t_uint256"
					},
					{
						"astId": 23,
						"contract": "samosa/project. sol:MilestoneEscrow",
						"label": "contractState",
						"offset": 0,
						"slot": "6",
						"type": "t_enum(State)20"
					}
				],
				"types": {
					"t_address": {
						"encoding": "inplace",
						"label": "address",
						"numberOfBytes": "20"
					},
					"t_address_payable": {
						"encoding": "inplace",
						"label": "address payable",
						"numberOfBytes": "20"
					},
					"t_enum(State)20": {
						"encoding": "inplace",
						"label": "enum MilestoneEscrow.State",
						"numberOfBytes": "1"
					},
					"t_mapping(t_uint256,t_uint256)": {
						"encoding": "mapping",
						"key": "t_uint256",
						"label": "mapping(uint256 => uint256)",
						"numberOfBytes": "32",
						"value": "t_uint256"
					},
					"t_uint256": {
						"encoding": "inplace",
						"label": "uint256",
						"numberOfBytes": "32"
					}
				}
			},
			"userdoc": {
				"kind": "user",
				"methods": {},
				"version": 1
			}
		}
	}
}